{"contracts/SoftwareMarketPlace.sol":{"SoftwareMarketPlace":{"abi":[{"inputs":[],"stateMutability":"nonpayable","type":"constructor"},{"anonymous":false,"inputs":[{"indexed":false,"internalType":"string","name":"name","type":"string"}],"name":"SoftwareDeleted","type":"event"},{"anonymous":false,"inputs":[{"indexed":false,"internalType":"string","name":"name","type":"string"},{"indexed":false,"internalType":"uint256","name":"id","type":"uint256"},{"indexed":false,"internalType":"address","name":"owner","type":"address"},{"indexed":false,"internalType":"uint256","name":"purchasedTimestamp","type":"uint256"}],"name":"SoftwareSettled","type":"event"},{"anonymous":false,"inputs":[{"indexed":false,"internalType":"string","name":"name","type":"string"},{"indexed":false,"internalType":"uint256","name":"id","type":"uint256"},{"indexed":false,"internalType":"uint256","name":"price","type":"uint256"},{"indexed":false,"internalType":"uint256","name":"addedTimestamp","type":"uint256"}],"name":"SoftwareSubmitted","type":"event"},{"inputs":[{"internalType":"string","name":"name","type":"string"},{"internalType":"uint256","name":"price","type":"uint256"}],"name":"addSoftware","outputs":[],"stateMutability":"nonpayable","type":"function"},{"inputs":[{"internalType":"string","name":"name","type":"string"}],"name":"buySoftware","outputs":[],"stateMutability":"payable","type":"function"},{"inputs":[{"internalType":"string","name":"name","type":"string"}],"name":"deleteSoftware","outputs":[],"stateMutability":"nonpayable","type":"function"},{"inputs":[],"name":"getAllSoftwareItems","outputs":[{"components":[{"internalType":"string","name":"name","type":"string"},{"internalType":"uint256","name":"id","type":"uint256"},{"internalType":"address","name":"owner","type":"address"},{"internalType":"uint256","name":"price","type":"uint256"},{"internalType":"enum SoftwareMarketPlace.Status","name":"status","type":"uint8"},{"internalType":"uint256","name":"addedTimestamp","type":"uint256"},{"internalType":"uint256","name":"purchasedTimestamp","type":"uint256"}],"internalType":"struct SoftwareMarketPlace.SoftwareDetails[]","name":"","type":"tuple[]"}],"stateMutability":"view","type":"function"},{"inputs":[],"name":"getAllSoftwareNamesAndIds","outputs":[{"internalType":"string[]","name":"","type":"string[]"},{"internalType":"uint256[]","name":"","type":"uint256[]"}],"stateMutability":"view","type":"function"},{"inputs":[{"internalType":"string","name":"name","type":"string"}],"name":"getSoftwareDetails","outputs":[{"internalType":"uint256","name":"","type":"uint256"},{"internalType":"address","name":"","type":"address"},{"internalType":"uint256","name":"","type":"uint256"},{"internalType":"enum SoftwareMarketPlace.Status","name":"","type":"uint8"},{"internalType":"uint256","name":"","type":"uint256"},{"internalType":"uint256","name":"","type":"uint256"}],"stateMutability":"view","type":"function"},{"inputs":[{"internalType":"string","name":"name","type":"string"}],"name":"getSoftwareStatus","outputs":[{"internalType":"enum SoftwareMarketPlace.Status","name":"","type":"uint8"}],"stateMutability":"view","type":"function"},{"inputs":[],"name":"getTotalSoftwareItems","outputs":[{"internalType":"uint256","name":"","type":"uint256"}],"stateMutability":"view","type":"function"},{"inputs":[],"name":"manager","outputs":[{"internalType":"address","name":"","type":"address"}],"stateMutability":"view","type":"function"},{"inputs":[],"name":"sample","outputs":[{"internalType":"uint256","name":"","type":"uint256"}],"stateMutability":"view","type":"function"},{"inputs":[{"internalType":"string","name":"name","type":"string"},{"internalType":"address","name":"newOwner","type":"address"}],"name":"settleSoftwareOwnership","outputs":[],"stateMutability":"payable","type":"function"},{"inputs":[{"internalType":"string","name":"","type":"string"}],"name":"softwareItems","outputs":[{"internalType":"uint256","name":"id","type":"uint256"},{"internalType":"address","name":"owner","type":"address"},{"internalType":"uint256","name":"price","type":"uint256"},{"internalType":"enum SoftwareMarketPlace.Status","name":"status","type":"uint8"},{"internalType":"uint256","name":"addedTimestamp","type":"uint256"},{"internalType":"uint256","name":"purchasedTimestamp","type":"uint256"}],"stateMutability":"view","type":"function"},{"inputs":[{"internalType":"string","name":"","type":"string"}],"name":"softwareNameToId","outputs":[{"internalType":"uint256","name":"","type":"uint256"}],"stateMutability":"view","type":"function"},{"inputs":[{"internalType":"uint256","name":"","type":"uint256"}],"name":"softwareNames","outputs":[{"internalType":"string","name":"","type":"string"}],"stateMutability":"view","type":"function"}],"evm":{"bytecode":{"linkReferences":{},"object":"60806040523480156200001157600080fd5b50600460008190555033600460006101000a81548173ffffffffffffffffffffffffffffffffffffffff021916908373ffffffffffffffffffffffffffffffffffffffff160217905550620000aa6040518060400160405280600f81526020017f41646f62652050686f746f73686f70000000000000000000000000000000000081525067016345785d8a00006200041160201b60201c565b620000f96040518060400160405280601181526020017f41646f626520496c6c7573747261746f7200000000000000000000000000000081525067011c37937e0800006200041160201b60201c565b620001476040518060400160405280600f81526020017f41646f6265204c69676874726f6f6d000000000000000000000000000000000081525066b1a2bc2ec500006200041160201b60201c565b620001956040518060400160405280600e81526020017f41646f6265204175646974696f6e000000000000000000000000000000000000815250666a94d74f4300006200041160201b60201c565b620001e46040518060400160405280600a81526020017f41646f6265204d757365000000000000000000000000000000000000000000008152506703311fc80a5700006200041160201b60201c565b620002336040518060400160405280601381526020017f41646f6265204372656174697665436c6f756400000000000000000000000000815250670494654067e100006200041160201b60201c565b620002826040518060400160405280600e81526020017f41646f626520496e64657369676e000000000000000000000000000000000000815250670e4b4b8af6a700006200041160201b60201c565b620002d16040518060400160405280601181526020017f41646f626520447265616d776561766572000000000000000000000000000000815250672a0cb8f2456f00006200041160201b60201c565b620003206040518060400160405280600881526020017f41646f62652058440000000000000000000000000000000000000000000000008152506737ed6fa5ecd300006200041160201b60201c565b6200036e6040518060400160405280600e81526020017f41646f6265205072656d6965726500000000000000000000000000000000000081525066470de4df8200006200041160201b60201c565b620003bc6040518060400160405280600d81526020017f41646f626520416e696d61746500000000000000000000000000000000000000815250660aa87bee5380006200041160201b60201c565b6200040b6040518060400160405280600d81526020017f41646f62652045787072657373000000000000000000000000000000000000008152506703311fc80a5700006200041160201b60201c565b62000b5d565b60004290506040518060c0016040528060016002805490506200043591906200064d565b8152602001600460009054906101000a900473ffffffffffffffffffffffffffffffffffffffff1673ffffffffffffffffffffffffffffffffffffffff1681526020018381526020016000600181111562000495576200049462000688565b5b81526020018281526020016000815250600184604051620004b7919062000730565b90815260200160405180910390206000820151816000015560208201518160010160006101000a81548173ffffffffffffffffffffffffffffffffffffffff021916908373ffffffffffffffffffffffffffffffffffffffff1602179055506040820151816002015560608201518160030160006101000a81548160ff021916908360018111156200054e576200054d62000688565b5b02179055506080820151816004015560a08201518160050155905050600283908060018154018082558091505060019003906000526020600020016000909190919091509081620005a09190620009ae565b50600280549050600384604051620005b9919062000730565b9081526020016040518091039020819055507fb12a1685c8c531e82b68ea5ac264f4495953432d3104bc761292cd6ba93f4da683600280549050848460405162000607949392919062000b09565b60405180910390a1505050565b6000819050919050565b7f4e487b7100000000000000000000000000000000000000000000000000000000600052601160045260246000fd5b60006200065a8262000614565b9150620006678362000614565b92508282019050808211156200068257620006816200061e565b5b92915050565b7f4e487b7100000000000000000000000000000000000000000000000000000000600052602160045260246000fd5b600081519050919050565b600081905092915050565b60005b83811015620006ed578082015181840152602081019050620006d0565b60008484015250505050565b60006200070682620006b7565b620007128185620006c2565b935062000724818560208601620006cd565b80840191505092915050565b60006200073e8284620006f9565b915081905092915050565b7f4e487b7100000000000000000000000000000000000000000000000000000000600052604160045260246000fd5b7f4e487b7100000000000000000000000000000000000000000000000000000000600052602260045260246000fd5b60006002820490506001821680620007c057607f821691505b602082108103620007d657620007d562000778565b5b50919050565b60008190508160005260206000209050919050565b60006020601f8301049050919050565b600082821b905092915050565b600060088302620008407fffffffffffffffffffffffffffffffffffffffffffffffffffffffffffffffff8262000801565b6200084c868362000801565b95508019841693508086168417925050509392505050565b6000819050919050565b60006200088f62000889620008838462000614565b62000864565b62000614565b9050919050565b6000819050919050565b620008ab836200086e565b620008c3620008ba8262000896565b8484546200080e565b825550505050565b600090565b620008da620008cb565b620008e7818484620008a0565b505050565b5b818110156200090f5762000903600082620008d0565b600181019050620008ed565b5050565b601f8211156200095e576200092881620007dc565b6200093384620007f1565b8101602085101562000943578190505b6200095b6200095285620007f1565b830182620008ec565b50505b505050565b600082821c905092915050565b6000620009836000198460080262000963565b1980831691505092915050565b60006200099e838362000970565b9150826002028217905092915050565b620009b982620006b7565b67ffffffffffffffff811115620009d557620009d462000749565b5b620009e18254620007a7565b620009ee82828562000913565b600060209050601f83116001811462000a26576000841562000a11578287015190505b62000a1d858262000990565b86555062000a8d565b601f19841662000a3686620007dc565b60005b8281101562000a605784890151825560018201915060208501945060208101905062000a39565b8683101562000a80578489015162000a7c601f89168262000970565b8355505b6001600288020188555050505b505050505050565b600082825260208201905092915050565b6000601f19601f8301169050919050565b600062000ac482620006b7565b62000ad0818562000a95565b935062000ae2818560208601620006cd565b62000aed8162000aa6565b840191505092915050565b62000b038162000614565b82525050565b6000608082019050818103600083015262000b25818762000ab7565b905062000b36602083018662000af8565b62000b45604083018562000af8565b62000b54606083018462000af8565b95945050505050565b612e478062000b6d6000396000f3fe6080604052600436106100dc5760003560e01c80638899065e1161007f578063be097b9f11610059578063be097b9f146102a9578063c9482a5d146102e6578063d4dc42c314610311578063f0776f8a14610353576100dc565b80638899065e14610218578063922dd7dc14610241578063b8a8d8291461026c576100dc565b806338ddaeaa116100bb57806338ddaeaa14610168578063481c6a75146101a5578063742205d7146101d057806387b636e4146101ec576100dc565b8062c9e3b6146100e15780630ffecf461461010a5780631809bc821461014c575b600080fd5b3480156100ed57600080fd5b50610108600480360381019061010391906119db565b61037e565b005b34801561011657600080fd5b50610131600480360381019061012c9190611b7c565b610677565b60405161014396959493929190611c8c565b60405180910390f35b61016660048036038101906101619190611ced565b6106f6565b005b34801561017457600080fd5b5061018f600480360381019061018a9190611b7c565b610aaf565b60405161019c9190611d3a565b60405180910390f35b3480156101b157600080fd5b506101ba610add565b6040516101c79190611d55565b60405180910390f35b6101ea60048036038101906101e59190611d9c565b610b03565b005b3480156101f857600080fd5b50610201610ebd565b60405161020f929190611ffb565b60405180910390f35b34801561022457600080fd5b5061023f600480360381019061023a9190611ced565b611041565b005b34801561024d57600080fd5b50610256611385565b60405161026391906121ae565b60405180910390f35b34801561027857600080fd5b50610293600480360381019061028e91906121d0565b61164a565b6040516102a09190612247565b60405180910390f35b3480156102b557600080fd5b506102d060048036038101906102cb9190611ced565b6116f6565b6040516102dd9190612269565b60405180910390f35b3480156102f257600080fd5b506102fb611731565b6040516103089190611d3a565b60405180910390f35b34801561031d57600080fd5b5061033860048036038101906103339190611ced565b611737565b60405161034a96959493929190611c8c565b60405180910390f35b34801561035f57600080fd5b5061036861185d565b6040516103759190611d3a565b60405180910390f35b600460009054906101000a900473ffffffffffffffffffffffffffffffffffffffff1673ffffffffffffffffffffffffffffffffffffffff163373ffffffffffffffffffffffffffffffffffffffff161461040e576040517f08c379a0000000000000000000000000000000000000000000000000000000008152600401610405906122f6565b60405180910390fd5b600060018484604051610422929190612346565b90815260200160405180910390206000015414610474576040517f08c379a000000000000000000000000000000000000000000000000000000000815260040161046b906123d1565b60405180910390fd5b60004290506040518060c0016040528060016002805490506104969190612420565b8152602001600460009054906101000a900473ffffffffffffffffffffffffffffffffffffffff1673ffffffffffffffffffffffffffffffffffffffff168152602001838152602001600060018111156104f3576104f2611c15565b5b8152602001828152602001600081525060018585604051610515929190612346565b90815260200160405180910390206000820151816000015560208201518160010160006101000a81548173ffffffffffffffffffffffffffffffffffffffff021916908373ffffffffffffffffffffffffffffffffffffffff1602179055506040820151816002015560608201518160030160006101000a81548160ff021916908360018111156105a9576105a8611c15565b5b02179055506080820151816004015560a08201518160050155905050600284849091806001815401808255809150506001900390600052602060002001600090919290919290919290919250918261060292919061266b565b506002805490506003858560405161061b929190612346565b9081526020016040518091039020819055507fb12a1685c8c531e82b68ea5ac264f4495953432d3104bc761292cd6ba93f4da684846002805490508585604051610669959493929190612768565b60405180910390a150505050565b6001818051602081018201805184825260208301602085012081835280955050505050506000915090508060000154908060010160009054906101000a900473ffffffffffffffffffffffffffffffffffffffff16908060020154908060030160009054906101000a900460ff16908060040154908060050154905086565b81818080601f016020809104026020016040519081016040528093929190818152602001838380828437600081840152601f19601f82011690508083019250505050505050600060018260405161074d91906127e7565b9081526020016040518091039020600001541161079f576040517f08c379a00000000000000000000000000000000000000000000000000000000081526004016107969061284a565b60405180910390fd5b600460009054906101000a900473ffffffffffffffffffffffffffffffffffffffff1673ffffffffffffffffffffffffffffffffffffffff163373ffffffffffffffffffffffffffffffffffffffff160361082f576040517f08c379a0000000000000000000000000000000000000000000000000000000008152600401610826906128dc565b60405180910390fd5b600060018484604051610843929190612346565b908152602001604051809103902090506000600181111561086757610866611c15565b5b8160030160009054906101000a900460ff16600181111561088b5761088a611c15565b5b146108cb576040517f08c379a00000000000000000000000000000000000000000000000000000000081526004016108c290612948565b60405180910390fd5b8060020154341015610912576040517f08c379a0000000000000000000000000000000000000000000000000000000008152600401610909906129b4565b60405180910390fd5b60008160010160009054906101000a900473ffffffffffffffffffffffffffffffffffffffff169050338260010160006101000a81548173ffffffffffffffffffffffffffffffffffffffff021916908373ffffffffffffffffffffffffffffffffffffffff16021790555060018260030160006101000a81548160ff021916908360018111156109a6576109a5611c15565b5b02179055504282600501819055507f1db318f0db32ba71bb6ba99636451cae83feb4b7982a04710044f45235be392e858584600001543386600501546040516109f39594939291906129d4565b60405180910390a160008173ffffffffffffffffffffffffffffffffffffffff1634604051610a2190612a53565b60006040518083038185875af1925050503d8060008114610a5e576040519150601f19603f3d011682016040523d82523d6000602084013e610a63565b606091505b5050905080610aa7576040517f08c379a0000000000000000000000000000000000000000000000000000000008152600401610a9e90612ada565b60405180910390fd5b505050505050565b6003818051602081018201805184825260208301602085012081835280955050505050506000915090505481565b600460009054906101000a900473ffffffffffffffffffffffffffffffffffffffff1681565b82828080601f016020809104026020016040519081016040528093929190818152602001838380828437600081840152601f19601f820116905080830192505050505050506000600182604051610b5a91906127e7565b90815260200160405180910390206000015411610bac576040517f08c379a0000000000000000000000000000000000000000000000000000000008152600401610ba39061284a565b60405180910390fd5b600460009054906101000a900473ffffffffffffffffffffffffffffffffffffffff1673ffffffffffffffffffffffffffffffffffffffff163373ffffffffffffffffffffffffffffffffffffffff1603610c3c576040517f08c379a0000000000000000000000000000000000000000000000000000000008152600401610c33906128dc565b60405180910390fd5b600060018585604051610c50929190612346565b9081526020016040518091039020905060006001811115610c7457610c73611c15565b5b8160030160009054906101000a900460ff166001811115610c9857610c97611c15565b5b14610cd8576040517f08c379a0000000000000000000000000000000000000000000000000000000008152600401610ccf90612948565b60405180910390fd5b8060020154341015610d1f576040517f08c379a0000000000000000000000000000000000000000000000000000000008152600401610d16906129b4565b60405180910390fd5b60008160010160009054906101000a900473ffffffffffffffffffffffffffffffffffffffff169050838260010160006101000a81548173ffffffffffffffffffffffffffffffffffffffff021916908373ffffffffffffffffffffffffffffffffffffffff16021790555060018260030160006101000a81548160ff02191690836001811115610db357610db2611c15565b5b02179055504282600501819055507f1db318f0db32ba71bb6ba99636451cae83feb4b7982a04710044f45235be392e86868460000154878660050154604051610e009594939291906129d4565b60405180910390a160008173ffffffffffffffffffffffffffffffffffffffff1634604051610e2e90612a53565b60006040518083038185875af1925050503d8060008114610e6b576040519150601f19603f3d011682016040523d82523d6000602084013e610e70565b606091505b5050905080610eb4576040517f08c379a0000000000000000000000000000000000000000000000000000000008152600401610eab90612ada565b60405180910390fd5b50505050505050565b606080600060028054905067ffffffffffffffff811115610ee157610ee0611a51565b5b604051908082528060200260200182016040528015610f0f5781602001602082028036833780820191505090505b50905060005b600280549050811015610f6157600181610f2f9190612420565b828281518110610f4257610f41612afa565b5b6020026020010181815250508080610f5990612b29565b915050610f15565b5060028181805480602002602001604051908101604052809291908181526020016000905b82821015611032578382906000526020600020018054610fa59061248e565b80601f0160208091040260200160405190810160405280929190818152602001828054610fd19061248e565b801561101e5780601f10610ff35761010080835404028352916020019161101e565b820191906000526020600020905b81548152906001019060200180831161100157829003601f168201915b505050505081526020019060010190610f86565b50505050915092509250509091565b600460009054906101000a900473ffffffffffffffffffffffffffffffffffffffff1673ffffffffffffffffffffffffffffffffffffffff163373ffffffffffffffffffffffffffffffffffffffff16146110d1576040517f08c379a00000000000000000000000000000000000000000000000000000000081526004016110c8906122f6565b60405180910390fd5b81818080601f016020809104026020016040519081016040528093929190818152602001838380828437600081840152601f19601f82011690508083019250505050505050600060018260405161112891906127e7565b9081526020016040518091039020600001541161117a576040517f08c379a00000000000000000000000000000000000000000000000000000000081526004016111719061284a565b60405180910390fd5b6000600160038585604051611190929190612346565b9081526020016040518091039020546111a99190612b71565b905060028054905081106111f2576040517f08c379a00000000000000000000000000000000000000000000000000000000081526004016111e990612bf1565b60405180910390fd5b600260016002805490506112069190612b71565b8154811061121757611216612afa565b5b906000526020600020016002828154811061123557611234612afa565b5b90600052602060002001908161124b9190612c3c565b50600280548061125e5761125d612d24565b5b60019003818190600052602060002001600061127a919061186a565b90556001816112899190612420565b60036002838154811061129f5761129e612afa565b5b906000526020600020016040516112b69190612dd6565b908152602001604051809103902081905550600184846040516112da929190612346565b90815260200160405180910390206000808201600090556001820160006101000a81549073ffffffffffffffffffffffffffffffffffffffff021916905560028201600090556003820160006101000a81549060ff02191690556004820160009055600582016000905550507f1e0764c50f8f6cc4c941469f592b8caaa82084d800ae431d73559e1f17b498bb8484604051611377929190612ded565b60405180910390a150505050565b6060600060028054905067ffffffffffffffff8111156113a8576113a7611a51565b5b6040519080825280602002602001820160405280156113e157816020015b6113ce6118aa565b8152602001906001900390816113c65790505b50905060005b60028054905081101561164257600060016002838154811061140c5761140b612afa565b5b906000526020600020016040516114239190612dd6565b90815260200160405180910390206040518060c0016040529081600082015481526020016001820160009054906101000a900473ffffffffffffffffffffffffffffffffffffffff1673ffffffffffffffffffffffffffffffffffffffff1673ffffffffffffffffffffffffffffffffffffffff168152602001600282015481526020016003820160009054906101000a900460ff1660018111156114cb576114ca611c15565b5b60018111156114dd576114dc611c15565b5b81526020016004820154815260200160058201548152505090506040518060e001604052806002848154811061151657611515612afa565b5b90600052602060002001805461152b9061248e565b80601f01602080910402602001604051908101604052809291908181526020018280546115579061248e565b80156115a45780601f10611579576101008083540402835291602001916115a4565b820191906000526020600020905b81548152906001019060200180831161158757829003601f168201915b5050505050815260200182600001518152602001826020015173ffffffffffffffffffffffffffffffffffffffff16815260200182604001518152602001826060015160018111156115f9576115f8611c15565b5b8152602001826080015181526020018260a0015181525083838151811061162357611622612afa565b5b602002602001018190525050808061163a90612b29565b9150506113e7565b508091505090565b6002818154811061165a57600080fd5b9060005260206000200160009150905080546116759061248e565b80601f01602080910402602001604051908101604052809291908181526020018280546116a19061248e565b80156116ee5780601f106116c3576101008083540402835291602001916116ee565b820191906000526020600020905b8154815290600101906020018083116116d157829003601f168201915b505050505081565b60006001838360405161170a929190612346565b908152602001604051809103902060030160009054906101000a900460ff16905092915050565b60005481565b600080600080600080600060018989604051611754929190612346565b90815260200160405180910390206040518060c0016040529081600082015481526020016001820160009054906101000a900473ffffffffffffffffffffffffffffffffffffffff1673ffffffffffffffffffffffffffffffffffffffff1673ffffffffffffffffffffffffffffffffffffffff168152602001600282015481526020016003820160009054906101000a900460ff1660018111156117fc576117fb611c15565b5b600181111561180e5761180d611c15565b5b8152602001600482015481526020016005820154815250509050806000015181602001518260400151836060015184608001518560a00151965096509650965096509650509295509295509295565b6000600280549050905090565b5080546118769061248e565b6000825580601f1061188857506118a7565b601f0160209004906000526020600020908101906118a6919061190f565b5b50565b6040518060e001604052806060815260200160008152602001600073ffffffffffffffffffffffffffffffffffffffff16815260200160008152602001600060018111156118fb576118fa611c15565b5b815260200160008152602001600081525090565b5b80821115611928576000816000905550600101611910565b5090565b6000604051905090565b600080fd5b600080fd5b600080fd5b600080fd5b600080fd5b60008083601f84011261196557611964611940565b5b8235905067ffffffffffffffff81111561198257611981611945565b5b60208301915083600182028301111561199e5761199d61194a565b5b9250929050565b6000819050919050565b6119b8816119a5565b81146119c357600080fd5b50565b6000813590506119d5816119af565b92915050565b6000806000604084860312156119f4576119f3611936565b5b600084013567ffffffffffffffff811115611a1257611a1161193b565b5b611a1e8682870161194f565b93509350506020611a31868287016119c6565b9150509250925092565b600080fd5b6000601f19601f8301169050919050565b7f4e487b7100000000000000000000000000000000000000000000000000000000600052604160045260246000fd5b611a8982611a40565b810181811067ffffffffffffffff82111715611aa857611aa7611a51565b5b80604052505050565b6000611abb61192c565b9050611ac78282611a80565b919050565b600067ffffffffffffffff821115611ae757611ae6611a51565b5b611af082611a40565b9050602081019050919050565b82818337600083830152505050565b6000611b1f611b1a84611acc565b611ab1565b905082815260208101848484011115611b3b57611b3a611a3b565b5b611b46848285611afd565b509392505050565b600082601f830112611b6357611b62611940565b5b8135611b73848260208601611b0c565b91505092915050565b600060208284031215611b9257611b91611936565b5b600082013567ffffffffffffffff811115611bb057611baf61193b565b5b611bbc84828501611b4e565b91505092915050565b611bce816119a5565b82525050565b600073ffffffffffffffffffffffffffffffffffffffff82169050919050565b6000611bff82611bd4565b9050919050565b611c0f81611bf4565b82525050565b7f4e487b7100000000000000000000000000000000000000000000000000000000600052602160045260246000fd5b60028110611c5557611c54611c15565b5b50565b6000819050611c6682611c44565b919050565b6000611c7682611c58565b9050919050565b611c8681611c6b565b82525050565b600060c082019050611ca16000830189611bc5565b611cae6020830188611c06565b611cbb6040830187611bc5565b611cc86060830186611c7d565b611cd56080830185611bc5565b611ce260a0830184611bc5565b979650505050505050565b60008060208385031215611d0457611d03611936565b5b600083013567ffffffffffffffff811115611d2257611d2161193b565b5b611d2e8582860161194f565b92509250509250929050565b6000602082019050611d4f6000830184611bc5565b92915050565b6000602082019050611d6a6000830184611c06565b92915050565b611d7981611bf4565b8114611d8457600080fd5b50565b600081359050611d9681611d70565b92915050565b600080600060408486031215611db557611db4611936565b5b600084013567ffffffffffffffff811115611dd357611dd261193b565b5b611ddf8682870161194f565b93509350506020611df286828701611d87565b9150509250925092565b600081519050919050565b600082825260208201905092915050565b6000819050602082019050919050565b600081519050919050565b600082825260208201905092915050565b60005b83811015611e62578082015181840152602081019050611e47565b60008484015250505050565b6000611e7982611e28565b611e838185611e33565b9350611e93818560208601611e44565b611e9c81611a40565b840191505092915050565b6000611eb38383611e6e565b905092915050565b6000602082019050919050565b6000611ed382611dfc565b611edd8185611e07565b935083602082028501611eef85611e18565b8060005b85811015611f2b5784840389528151611f0c8582611ea7565b9450611f1783611ebb565b925060208a01995050600181019050611ef3565b50829750879550505050505092915050565b600081519050919050565b600082825260208201905092915050565b6000819050602082019050919050565b611f72816119a5565b82525050565b6000611f848383611f69565b60208301905092915050565b6000602082019050919050565b6000611fa882611f3d565b611fb28185611f48565b9350611fbd83611f59565b8060005b83811015611fee578151611fd58882611f78565b9750611fe083611f90565b925050600181019050611fc1565b5085935050505092915050565b600060408201905081810360008301526120158185611ec8565b905081810360208301526120298184611f9d565b90509392505050565b600081519050919050565b600082825260208201905092915050565b6000819050602082019050919050565b61206781611bf4565b82525050565b61207681611c6b565b82525050565b600060e08301600083015184820360008601526120998282611e6e565b91505060208301516120ae6020860182611f69565b5060408301516120c1604086018261205e565b5060608301516120d46060860182611f69565b5060808301516120e7608086018261206d565b5060a08301516120fa60a0860182611f69565b5060c083015161210d60c0860182611f69565b508091505092915050565b6000612124838361207c565b905092915050565b6000602082019050919050565b600061214482612032565b61214e818561203d565b9350836020820285016121608561204e565b8060005b8581101561219c578484038952815161217d8582612118565b94506121888361212c565b925060208a01995050600181019050612164565b50829750879550505050505092915050565b600060208201905081810360008301526121c88184612139565b905092915050565b6000602082840312156121e6576121e5611936565b5b60006121f4848285016119c6565b91505092915050565b600082825260208201905092915050565b600061221982611e28565b61222381856121fd565b9350612233818560208601611e44565b61223c81611a40565b840191505092915050565b60006020820190508181036000830152612261818461220e565b905092915050565b600060208201905061227e6000830184611c7d565b92915050565b7f4f6e6c7920746865206d616e616765722063616e20706572666f726d2074686960008201527f7320616374696f6e000000000000000000000000000000000000000000000000602082015250565b60006122e06028836121fd565b91506122eb82612284565b604082019050919050565b6000602082019050818103600083015261230f816122d3565b9050919050565b600081905092915050565b600061232d8385612316565b935061233a838584611afd565b82840190509392505050565b6000612353828486612321565b91508190509392505050565b7f536f66747761726520776974682074686973206e616d6520616c72656164792060008201527f6578697374730000000000000000000000000000000000000000000000000000602082015250565b60006123bb6026836121fd565b91506123c68261235f565b604082019050919050565b600060208201905081810360008301526123ea816123ae565b9050919050565b7f4e487b7100000000000000000000000000000000000000000000000000000000600052601160045260246000fd5b600061242b826119a5565b9150612436836119a5565b925082820190508082111561244e5761244d6123f1565b5b92915050565b600082905092915050565b7f4e487b7100000000000000000000000000000000000000000000000000000000600052602260045260246000fd5b600060028204905060018216806124a657607f821691505b6020821081036124b9576124b861245f565b5b50919050565b60008190508160005260206000209050919050565b60006020601f8301049050919050565b600082821b905092915050565b6000600883026125217fffffffffffffffffffffffffffffffffffffffffffffffffffffffffffffffff826124e4565b61252b86836124e4565b95508019841693508086168417925050509392505050565b6000819050919050565b600061256861256361255e846119a5565b612543565b6119a5565b9050919050565b6000819050919050565b6125828361254d565b61259661258e8261256f565b8484546124f1565b825550505050565b600090565b6125ab61259e565b6125b6818484612579565b505050565b5b818110156125da576125cf6000826125a3565b6001810190506125bc565b5050565b601f82111561261f576125f0816124bf565b6125f9846124d4565b81016020851015612608578190505b61261c612614856124d4565b8301826125bb565b50505b505050565b600082821c905092915050565b600061264260001984600802612624565b1980831691505092915050565b600061265b8383612631565b9150826002028217905092915050565b6126758383612454565b67ffffffffffffffff81111561268e5761268d611a51565b5b612698825461248e565b6126a38282856125de565b6000601f8311600181146126d257600084156126c0578287013590505b6126ca858261264f565b865550612732565b601f1984166126e0866124bf565b60005b82811015612708578489013582556001820191506020850194506020810190506126e3565b868310156127255784890135612721601f891682612631565b8355505b6001600288020188555050505b50505050505050565b600061274783856121fd565b9350612754838584611afd565b61275d83611a40565b840190509392505050565b6000608082019050818103600083015261278381878961273b565b90506127926020830186611bc5565b61279f6040830185611bc5565b6127ac6060830184611bc5565b9695505050505050565b60006127c182611e28565b6127cb8185612316565b93506127db818560208601611e44565b80840191505092915050565b60006127f382846127b6565b915081905092915050565b7f536f66747761726520646f6573206e6f74206578697374000000000000000000600082015250565b60006128346017836121fd565b915061283f826127fe565b602082019050919050565b6000602082019050818103600083015261286381612827565b9050919050565b7f4d616e61676572732063616e6e6f7420706572666f726d20746869732061637460008201527f696f6e0000000000000000000000000000000000000000000000000000000000602082015250565b60006128c66023836121fd565b91506128d18261286a565b604082019050919050565b600060208201905081810360008301526128f5816128b9565b9050919050565b7f536f66747761726520697320616c726561647920736574746c65640000000000600082015250565b6000612932601b836121fd565b915061293d826128fc565b602082019050919050565b6000602082019050818103600083015261296181612925565b9050919050565b7f496e73756666696369656e74207061796d656e74000000000000000000000000600082015250565b600061299e6014836121fd565b91506129a982612968565b602082019050919050565b600060208201905081810360008301526129cd81612991565b9050919050565b600060808201905081810360008301526129ef81878961273b565b90506129fe6020830186611bc5565b612a0b6040830185611c06565b612a186060830184611bc5565b9695505050505050565b600081905092915050565b50565b6000612a3d600083612a22565b9150612a4882612a2d565b600082019050919050565b6000612a5e82612a30565b9150819050919050565b7f5472616e7366657220746f2070726576696f7573206f776e6572206661696c6560008201527f6400000000000000000000000000000000000000000000000000000000000000602082015250565b6000612ac46021836121fd565b9150612acf82612a68565b604082019050919050565b60006020820190508181036000830152612af381612ab7565b9050919050565b7f4e487b7100000000000000000000000000000000000000000000000000000000600052603260045260246000fd5b6000612b34826119a5565b91507fffffffffffffffffffffffffffffffffffffffffffffffffffffffffffffffff8203612b6657612b656123f1565b5b600182019050919050565b6000612b7c826119a5565b9150612b87836119a5565b9250828203905081811115612b9f57612b9e6123f1565b5b92915050565b7f536f667477617265206974656d206e6f7420666f756e64000000000000000000600082015250565b6000612bdb6017836121fd565b9150612be682612ba5565b602082019050919050565b60006020820190508181036000830152612c0a81612bce565b9050919050565b600081549050612c208161248e565b9050919050565b60008190508160005260206000209050919050565b818103612c4a575050612d22565b612c5382612c11565b67ffffffffffffffff811115612c6c57612c6b611a51565b5b612c76825461248e565b612c818282856125de565b6000601f831160018114612cb05760008415612c9e578287015490505b612ca8858261264f565b865550612d1b565b601f198416612cbe87612c27565b9650612cc9866124bf565b60005b82811015612cf157848901548255600182019150600185019450602081019050612ccc565b86831015612d0e5784890154612d0a601f891682612631565b8355505b6001600288020188555050505b5050505050505b565b7f4e487b7100000000000000000000000000000000000000000000000000000000600052603160045260246000fd5b60008154612d608161248e565b612d6a8186612316565b94506001821660008114612d855760018114612d9a57612dcd565b60ff1983168652811515820286019350612dcd565b612da3856124bf565b60005b83811015612dc557815481890152600182019150602081019050612da6565b838801955050505b50505092915050565b6000612de28284612d53565b915081905092915050565b60006020820190508181036000830152612e0881848661273b565b9050939250505056fea264697066735822122002acd287ab527b72785a806acc45a58923a6cc7c0a9779e3d3e29f0bb527ad6f64736f6c63430008130033","opcodes":"PUSH1 0x80 PUSH1 0x40 MSTORE CALLVALUE DUP1 ISZERO PUSH3 0x11 JUMPI PUSH1 0x0 DUP1 REVERT JUMPDEST POP PUSH1 0x4 PUSH1 0x0 DUP2 SWAP1 SSTORE POP CALLER PUSH1 0x4 PUSH1 0x0 PUSH2 0x100 EXP DUP2 SLOAD DUP2 PUSH20 0xFFFFFFFFFFFFFFFFFFFFFFFFFFFFFFFFFFFFFFFF MUL NOT AND SWAP1 DUP4 PUSH20 0xFFFFFFFFFFFFFFFFFFFFFFFFFFFFFFFFFFFFFFFF AND MUL OR SWAP1 SSTORE POP PUSH3 0xAA PUSH1 0x40 MLOAD DUP1 PUSH1 0x40 ADD PUSH1 0x40 MSTORE DUP1 PUSH1 0xF DUP2 MSTORE PUSH1 0x20 ADD PUSH32 0x41646F62652050686F746F73686F700000000000000000000000000000000000 DUP2 MSTORE POP PUSH8 0x16345785D8A0000 PUSH3 0x411 PUSH1 0x20 SHL PUSH1 0x20 SHR JUMP JUMPDEST PUSH3 0xF9 PUSH1 0x40 MLOAD DUP1 PUSH1 0x40 ADD PUSH1 0x40 MSTORE DUP1 PUSH1 0x11 DUP2 MSTORE PUSH1 0x20 ADD PUSH32 0x41646F626520496C6C7573747261746F72000000000000000000000000000000 DUP2 MSTORE POP PUSH8 0x11C37937E080000 PUSH3 0x411 PUSH1 0x20 SHL PUSH1 0x20 SHR JUMP JUMPDEST PUSH3 0x147 PUSH1 0x40 MLOAD DUP1 PUSH1 0x40 ADD PUSH1 0x40 MSTORE DUP1 PUSH1 0xF DUP2 MSTORE PUSH1 0x20 ADD PUSH32 0x41646F6265204C69676874726F6F6D0000000000000000000000000000000000 DUP2 MSTORE POP PUSH7 0xB1A2BC2EC50000 PUSH3 0x411 PUSH1 0x20 SHL PUSH1 0x20 SHR JUMP JUMPDEST PUSH3 0x195 PUSH1 0x40 MLOAD DUP1 PUSH1 0x40 ADD PUSH1 0x40 MSTORE DUP1 PUSH1 0xE DUP2 MSTORE PUSH1 0x20 ADD PUSH32 0x41646F6265204175646974696F6E000000000000000000000000000000000000 DUP2 MSTORE POP PUSH7 0x6A94D74F430000 PUSH3 0x411 PUSH1 0x20 SHL PUSH1 0x20 SHR JUMP JUMPDEST PUSH3 0x1E4 PUSH1 0x40 MLOAD DUP1 PUSH1 0x40 ADD PUSH1 0x40 MSTORE DUP1 PUSH1 0xA DUP2 MSTORE PUSH1 0x20 ADD PUSH32 0x41646F6265204D75736500000000000000000000000000000000000000000000 DUP2 MSTORE POP PUSH8 0x3311FC80A570000 PUSH3 0x411 PUSH1 0x20 SHL PUSH1 0x20 SHR JUMP JUMPDEST PUSH3 0x233 PUSH1 0x40 MLOAD DUP1 PUSH1 0x40 ADD PUSH1 0x40 MSTORE DUP1 PUSH1 0x13 DUP2 MSTORE PUSH1 0x20 ADD PUSH32 0x41646F6265204372656174697665436C6F756400000000000000000000000000 DUP2 MSTORE POP PUSH8 0x494654067E10000 PUSH3 0x411 PUSH1 0x20 SHL PUSH1 0x20 SHR JUMP JUMPDEST PUSH3 0x282 PUSH1 0x40 MLOAD DUP1 PUSH1 0x40 ADD PUSH1 0x40 MSTORE DUP1 PUSH1 0xE DUP2 MSTORE PUSH1 0x20 ADD PUSH32 0x41646F626520496E64657369676E000000000000000000000000000000000000 DUP2 MSTORE POP PUSH8 0xE4B4B8AF6A70000 PUSH3 0x411 PUSH1 0x20 SHL PUSH1 0x20 SHR JUMP JUMPDEST PUSH3 0x2D1 PUSH1 0x40 MLOAD DUP1 PUSH1 0x40 ADD PUSH1 0x40 MSTORE DUP1 PUSH1 0x11 DUP2 MSTORE PUSH1 0x20 ADD PUSH32 0x41646F626520447265616D776561766572000000000000000000000000000000 DUP2 MSTORE POP PUSH8 0x2A0CB8F2456F0000 PUSH3 0x411 PUSH1 0x20 SHL PUSH1 0x20 SHR JUMP JUMPDEST PUSH3 0x320 PUSH1 0x40 MLOAD DUP1 PUSH1 0x40 ADD PUSH1 0x40 MSTORE DUP1 PUSH1 0x8 DUP2 MSTORE PUSH1 0x20 ADD PUSH32 0x41646F6265205844000000000000000000000000000000000000000000000000 DUP2 MSTORE POP PUSH8 0x37ED6FA5ECD30000 PUSH3 0x411 PUSH1 0x20 SHL PUSH1 0x20 SHR JUMP JUMPDEST PUSH3 0x36E PUSH1 0x40 MLOAD DUP1 PUSH1 0x40 ADD PUSH1 0x40 MSTORE DUP1 PUSH1 0xE DUP2 MSTORE PUSH1 0x20 ADD PUSH32 0x41646F6265205072656D69657265000000000000000000000000000000000000 DUP2 MSTORE POP PUSH7 0x470DE4DF820000 PUSH3 0x411 PUSH1 0x20 SHL PUSH1 0x20 SHR JUMP JUMPDEST PUSH3 0x3BC PUSH1 0x40 MLOAD DUP1 PUSH1 0x40 ADD PUSH1 0x40 MSTORE DUP1 PUSH1 0xD DUP2 MSTORE PUSH1 0x20 ADD PUSH32 0x41646F626520416E696D61746500000000000000000000000000000000000000 DUP2 MSTORE POP PUSH7 0xAA87BEE538000 PUSH3 0x411 PUSH1 0x20 SHL PUSH1 0x20 SHR JUMP JUMPDEST PUSH3 0x40B PUSH1 0x40 MLOAD DUP1 PUSH1 0x40 ADD PUSH1 0x40 MSTORE DUP1 PUSH1 0xD DUP2 MSTORE PUSH1 0x20 ADD PUSH32 0x41646F6265204578707265737300000000000000000000000000000000000000 DUP2 MSTORE POP PUSH8 0x3311FC80A570000 PUSH3 0x411 PUSH1 0x20 SHL PUSH1 0x20 SHR JUMP JUMPDEST PUSH3 0xB5D JUMP JUMPDEST PUSH1 0x0 TIMESTAMP SWAP1 POP PUSH1 0x40 MLOAD DUP1 PUSH1 0xC0 ADD PUSH1 0x40 MSTORE DUP1 PUSH1 0x1 PUSH1 0x2 DUP1 SLOAD SWAP1 POP PUSH3 0x435 SWAP2 SWAP1 PUSH3 0x64D JUMP JUMPDEST DUP2 MSTORE PUSH1 0x20 ADD PUSH1 0x4 PUSH1 0x0 SWAP1 SLOAD SWAP1 PUSH2 0x100 EXP SWAP1 DIV PUSH20 0xFFFFFFFFFFFFFFFFFFFFFFFFFFFFFFFFFFFFFFFF AND PUSH20 0xFFFFFFFFFFFFFFFFFFFFFFFFFFFFFFFFFFFFFFFF AND DUP2 MSTORE PUSH1 0x20 ADD DUP4 DUP2 MSTORE PUSH1 0x20 ADD PUSH1 0x0 PUSH1 0x1 DUP2 GT ISZERO PUSH3 0x495 JUMPI PUSH3 0x494 PUSH3 0x688 JUMP JUMPDEST JUMPDEST DUP2 MSTORE PUSH1 0x20 ADD DUP3 DUP2 MSTORE PUSH1 0x20 ADD PUSH1 0x0 DUP2 MSTORE POP PUSH1 0x1 DUP5 PUSH1 0x40 MLOAD PUSH3 0x4B7 SWAP2 SWAP1 PUSH3 0x730 JUMP JUMPDEST SWAP1 DUP2 MSTORE PUSH1 0x20 ADD PUSH1 0x40 MLOAD DUP1 SWAP2 SUB SWAP1 KECCAK256 PUSH1 0x0 DUP3 ADD MLOAD DUP2 PUSH1 0x0 ADD SSTORE PUSH1 0x20 DUP3 ADD MLOAD DUP2 PUSH1 0x1 ADD PUSH1 0x0 PUSH2 0x100 EXP DUP2 SLOAD DUP2 PUSH20 0xFFFFFFFFFFFFFFFFFFFFFFFFFFFFFFFFFFFFFFFF MUL NOT AND SWAP1 DUP4 PUSH20 0xFFFFFFFFFFFFFFFFFFFFFFFFFFFFFFFFFFFFFFFF AND MUL OR SWAP1 SSTORE POP PUSH1 0x40 DUP3 ADD MLOAD DUP2 PUSH1 0x2 ADD SSTORE PUSH1 0x60 DUP3 ADD MLOAD DUP2 PUSH1 0x3 ADD PUSH1 0x0 PUSH2 0x100 EXP DUP2 SLOAD DUP2 PUSH1 0xFF MUL NOT AND SWAP1 DUP4 PUSH1 0x1 DUP2 GT ISZERO PUSH3 0x54E JUMPI PUSH3 0x54D PUSH3 0x688 JUMP JUMPDEST JUMPDEST MUL OR SWAP1 SSTORE POP PUSH1 0x80 DUP3 ADD MLOAD DUP2 PUSH1 0x4 ADD SSTORE PUSH1 0xA0 DUP3 ADD MLOAD DUP2 PUSH1 0x5 ADD SSTORE SWAP1 POP POP PUSH1 0x2 DUP4 SWAP1 DUP1 PUSH1 0x1 DUP2 SLOAD ADD DUP1 DUP3 SSTORE DUP1 SWAP2 POP POP PUSH1 0x1 SWAP1 SUB SWAP1 PUSH1 0x0 MSTORE PUSH1 0x20 PUSH1 0x0 KECCAK256 ADD PUSH1 0x0 SWAP1 SWAP2 SWAP1 SWAP2 SWAP1 SWAP2 POP SWAP1 DUP2 PUSH3 0x5A0 SWAP2 SWAP1 PUSH3 0x9AE JUMP JUMPDEST POP PUSH1 0x2 DUP1 SLOAD SWAP1 POP PUSH1 0x3 DUP5 PUSH1 0x40 MLOAD PUSH3 0x5B9 SWAP2 SWAP1 PUSH3 0x730 JUMP JUMPDEST SWAP1 DUP2 MSTORE PUSH1 0x20 ADD PUSH1 0x40 MLOAD DUP1 SWAP2 SUB SWAP1 KECCAK256 DUP2 SWAP1 SSTORE POP PUSH32 0xB12A1685C8C531E82B68EA5AC264F4495953432D3104BC761292CD6BA93F4DA6 DUP4 PUSH1 0x2 DUP1 SLOAD SWAP1 POP DUP5 DUP5 PUSH1 0x40 MLOAD PUSH3 0x607 SWAP5 SWAP4 SWAP3 SWAP2 SWAP1 PUSH3 0xB09 JUMP JUMPDEST PUSH1 0x40 MLOAD DUP1 SWAP2 SUB SWAP1 LOG1 POP POP POP JUMP JUMPDEST PUSH1 0x0 DUP2 SWAP1 POP SWAP2 SWAP1 POP JUMP JUMPDEST PUSH32 0x4E487B7100000000000000000000000000000000000000000000000000000000 PUSH1 0x0 MSTORE PUSH1 0x11 PUSH1 0x4 MSTORE PUSH1 0x24 PUSH1 0x0 REVERT JUMPDEST PUSH1 0x0 PUSH3 0x65A DUP3 PUSH3 0x614 JUMP JUMPDEST SWAP2 POP PUSH3 0x667 DUP4 PUSH3 0x614 JUMP JUMPDEST SWAP3 POP DUP3 DUP3 ADD SWAP1 POP DUP1 DUP3 GT ISZERO PUSH3 0x682 JUMPI PUSH3 0x681 PUSH3 0x61E JUMP JUMPDEST JUMPDEST SWAP3 SWAP2 POP POP JUMP JUMPDEST PUSH32 0x4E487B7100000000000000000000000000000000000000000000000000000000 PUSH1 0x0 MSTORE PUSH1 0x21 PUSH1 0x4 MSTORE PUSH1 0x24 PUSH1 0x0 REVERT JUMPDEST PUSH1 0x0 DUP2 MLOAD SWAP1 POP SWAP2 SWAP1 POP JUMP JUMPDEST PUSH1 0x0 DUP2 SWAP1 POP SWAP3 SWAP2 POP POP JUMP JUMPDEST PUSH1 0x0 JUMPDEST DUP4 DUP2 LT ISZERO PUSH3 0x6ED JUMPI DUP1 DUP3 ADD MLOAD DUP2 DUP5 ADD MSTORE PUSH1 0x20 DUP2 ADD SWAP1 POP PUSH3 0x6D0 JUMP JUMPDEST PUSH1 0x0 DUP5 DUP5 ADD MSTORE POP POP POP POP JUMP JUMPDEST PUSH1 0x0 PUSH3 0x706 DUP3 PUSH3 0x6B7 JUMP JUMPDEST PUSH3 0x712 DUP2 DUP6 PUSH3 0x6C2 JUMP JUMPDEST SWAP4 POP PUSH3 0x724 DUP2 DUP6 PUSH1 0x20 DUP7 ADD PUSH3 0x6CD JUMP JUMPDEST DUP1 DUP5 ADD SWAP2 POP POP SWAP3 SWAP2 POP POP JUMP JUMPDEST PUSH1 0x0 PUSH3 0x73E DUP3 DUP5 PUSH3 0x6F9 JUMP JUMPDEST SWAP2 POP DUP2 SWAP1 POP SWAP3 SWAP2 POP POP JUMP JUMPDEST PUSH32 0x4E487B7100000000000000000000000000000000000000000000000000000000 PUSH1 0x0 MSTORE PUSH1 0x41 PUSH1 0x4 MSTORE PUSH1 0x24 PUSH1 0x0 REVERT JUMPDEST PUSH32 0x4E487B7100000000000000000000000000000000000000000000000000000000 PUSH1 0x0 MSTORE PUSH1 0x22 PUSH1 0x4 MSTORE PUSH1 0x24 PUSH1 0x0 REVERT JUMPDEST PUSH1 0x0 PUSH1 0x2 DUP3 DIV SWAP1 POP PUSH1 0x1 DUP3 AND DUP1 PUSH3 0x7C0 JUMPI PUSH1 0x7F DUP3 AND SWAP2 POP JUMPDEST PUSH1 0x20 DUP3 LT DUP2 SUB PUSH3 0x7D6 JUMPI PUSH3 0x7D5 PUSH3 0x778 JUMP JUMPDEST JUMPDEST POP SWAP2 SWAP1 POP JUMP JUMPDEST PUSH1 0x0 DUP2 SWAP1 POP DUP2 PUSH1 0x0 MSTORE PUSH1 0x20 PUSH1 0x0 KECCAK256 SWAP1 POP SWAP2 SWAP1 POP JUMP JUMPDEST PUSH1 0x0 PUSH1 0x20 PUSH1 0x1F DUP4 ADD DIV SWAP1 POP SWAP2 SWAP1 POP JUMP JUMPDEST PUSH1 0x0 DUP3 DUP3 SHL SWAP1 POP SWAP3 SWAP2 POP POP JUMP JUMPDEST PUSH1 0x0 PUSH1 0x8 DUP4 MUL PUSH3 0x840 PUSH32 0xFFFFFFFFFFFFFFFFFFFFFFFFFFFFFFFFFFFFFFFFFFFFFFFFFFFFFFFFFFFFFFFF DUP3 PUSH3 0x801 JUMP JUMPDEST PUSH3 0x84C DUP7 DUP4 PUSH3 0x801 JUMP JUMPDEST SWAP6 POP DUP1 NOT DUP5 AND SWAP4 POP DUP1 DUP7 AND DUP5 OR SWAP3 POP POP POP SWAP4 SWAP3 POP POP POP JUMP JUMPDEST PUSH1 0x0 DUP2 SWAP1 POP SWAP2 SWAP1 POP JUMP JUMPDEST PUSH1 0x0 PUSH3 0x88F PUSH3 0x889 PUSH3 0x883 DUP5 PUSH3 0x614 JUMP JUMPDEST PUSH3 0x864 JUMP JUMPDEST PUSH3 0x614 JUMP JUMPDEST SWAP1 POP SWAP2 SWAP1 POP JUMP JUMPDEST PUSH1 0x0 DUP2 SWAP1 POP SWAP2 SWAP1 POP JUMP JUMPDEST PUSH3 0x8AB DUP4 PUSH3 0x86E JUMP JUMPDEST PUSH3 0x8C3 PUSH3 0x8BA DUP3 PUSH3 0x896 JUMP JUMPDEST DUP5 DUP5 SLOAD PUSH3 0x80E JUMP JUMPDEST DUP3 SSTORE POP POP POP POP JUMP JUMPDEST PUSH1 0x0 SWAP1 JUMP JUMPDEST PUSH3 0x8DA PUSH3 0x8CB JUMP JUMPDEST PUSH3 0x8E7 DUP2 DUP5 DUP5 PUSH3 0x8A0 JUMP JUMPDEST POP POP POP JUMP JUMPDEST JUMPDEST DUP2 DUP2 LT ISZERO PUSH3 0x90F JUMPI PUSH3 0x903 PUSH1 0x0 DUP3 PUSH3 0x8D0 JUMP JUMPDEST PUSH1 0x1 DUP2 ADD SWAP1 POP PUSH3 0x8ED JUMP JUMPDEST POP POP JUMP JUMPDEST PUSH1 0x1F DUP3 GT ISZERO PUSH3 0x95E JUMPI PUSH3 0x928 DUP2 PUSH3 0x7DC JUMP JUMPDEST PUSH3 0x933 DUP5 PUSH3 0x7F1 JUMP JUMPDEST DUP2 ADD PUSH1 0x20 DUP6 LT ISZERO PUSH3 0x943 JUMPI DUP2 SWAP1 POP JUMPDEST PUSH3 0x95B PUSH3 0x952 DUP6 PUSH3 0x7F1 JUMP JUMPDEST DUP4 ADD DUP3 PUSH3 0x8EC JUMP JUMPDEST POP POP JUMPDEST POP POP POP JUMP JUMPDEST PUSH1 0x0 DUP3 DUP3 SHR SWAP1 POP SWAP3 SWAP2 POP POP JUMP JUMPDEST PUSH1 0x0 PUSH3 0x983 PUSH1 0x0 NOT DUP5 PUSH1 0x8 MUL PUSH3 0x963 JUMP JUMPDEST NOT DUP1 DUP4 AND SWAP2 POP POP SWAP3 SWAP2 POP POP JUMP JUMPDEST PUSH1 0x0 PUSH3 0x99E DUP4 DUP4 PUSH3 0x970 JUMP JUMPDEST SWAP2 POP DUP3 PUSH1 0x2 MUL DUP3 OR SWAP1 POP SWAP3 SWAP2 POP POP JUMP JUMPDEST PUSH3 0x9B9 DUP3 PUSH3 0x6B7 JUMP JUMPDEST PUSH8 0xFFFFFFFFFFFFFFFF DUP2 GT ISZERO PUSH3 0x9D5 JUMPI PUSH3 0x9D4 PUSH3 0x749 JUMP JUMPDEST JUMPDEST PUSH3 0x9E1 DUP3 SLOAD PUSH3 0x7A7 JUMP JUMPDEST PUSH3 0x9EE DUP3 DUP3 DUP6 PUSH3 0x913 JUMP JUMPDEST PUSH1 0x0 PUSH1 0x20 SWAP1 POP PUSH1 0x1F DUP4 GT PUSH1 0x1 DUP2 EQ PUSH3 0xA26 JUMPI PUSH1 0x0 DUP5 ISZERO PUSH3 0xA11 JUMPI DUP3 DUP8 ADD MLOAD SWAP1 POP JUMPDEST PUSH3 0xA1D DUP6 DUP3 PUSH3 0x990 JUMP JUMPDEST DUP7 SSTORE POP PUSH3 0xA8D JUMP JUMPDEST PUSH1 0x1F NOT DUP5 AND PUSH3 0xA36 DUP7 PUSH3 0x7DC JUMP JUMPDEST PUSH1 0x0 JUMPDEST DUP3 DUP2 LT ISZERO PUSH3 0xA60 JUMPI DUP5 DUP10 ADD MLOAD DUP3 SSTORE PUSH1 0x1 DUP3 ADD SWAP2 POP PUSH1 0x20 DUP6 ADD SWAP5 POP PUSH1 0x20 DUP2 ADD SWAP1 POP PUSH3 0xA39 JUMP JUMPDEST DUP7 DUP4 LT ISZERO PUSH3 0xA80 JUMPI DUP5 DUP10 ADD MLOAD PUSH3 0xA7C PUSH1 0x1F DUP10 AND DUP3 PUSH3 0x970 JUMP JUMPDEST DUP4 SSTORE POP JUMPDEST PUSH1 0x1 PUSH1 0x2 DUP9 MUL ADD DUP9 SSTORE POP POP POP JUMPDEST POP POP POP POP POP POP JUMP JUMPDEST PUSH1 0x0 DUP3 DUP3 MSTORE PUSH1 0x20 DUP3 ADD SWAP1 POP SWAP3 SWAP2 POP POP JUMP JUMPDEST PUSH1 0x0 PUSH1 0x1F NOT PUSH1 0x1F DUP4 ADD AND SWAP1 POP SWAP2 SWAP1 POP JUMP JUMPDEST PUSH1 0x0 PUSH3 0xAC4 DUP3 PUSH3 0x6B7 JUMP JUMPDEST PUSH3 0xAD0 DUP2 DUP6 PUSH3 0xA95 JUMP JUMPDEST SWAP4 POP PUSH3 0xAE2 DUP2 DUP6 PUSH1 0x20 DUP7 ADD PUSH3 0x6CD JUMP JUMPDEST PUSH3 0xAED DUP2 PUSH3 0xAA6 JUMP JUMPDEST DUP5 ADD SWAP2 POP POP SWAP3 SWAP2 POP POP JUMP JUMPDEST PUSH3 0xB03 DUP2 PUSH3 0x614 JUMP JUMPDEST DUP3 MSTORE POP POP JUMP JUMPDEST PUSH1 0x0 PUSH1 0x80 DUP3 ADD SWAP1 POP DUP2 DUP2 SUB PUSH1 0x0 DUP4 ADD MSTORE PUSH3 0xB25 DUP2 DUP8 PUSH3 0xAB7 JUMP JUMPDEST SWAP1 POP PUSH3 0xB36 PUSH1 0x20 DUP4 ADD DUP7 PUSH3 0xAF8 JUMP JUMPDEST PUSH3 0xB45 PUSH1 0x40 DUP4 ADD DUP6 PUSH3 0xAF8 JUMP JUMPDEST PUSH3 0xB54 PUSH1 0x60 DUP4 ADD DUP5 PUSH3 0xAF8 JUMP JUMPDEST SWAP6 SWAP5 POP POP POP POP POP JUMP JUMPDEST PUSH2 0x2E47 DUP1 PUSH3 0xB6D PUSH1 0x0 CODECOPY PUSH1 0x0 RETURN INVALID PUSH1 0x80 PUSH1 0x40 MSTORE PUSH1 0x4 CALLDATASIZE LT PUSH2 0xDC JUMPI PUSH1 0x0 CALLDATALOAD PUSH1 0xE0 SHR DUP1 PUSH4 0x8899065E GT PUSH2 0x7F JUMPI DUP1 PUSH4 0xBE097B9F GT PUSH2 0x59 JUMPI DUP1 PUSH4 0xBE097B9F EQ PUSH2 0x2A9 JUMPI DUP1 PUSH4 0xC9482A5D EQ PUSH2 0x2E6 JUMPI DUP1 PUSH4 0xD4DC42C3 EQ PUSH2 0x311 JUMPI DUP1 PUSH4 0xF0776F8A EQ PUSH2 0x353 JUMPI PUSH2 0xDC JUMP JUMPDEST DUP1 PUSH4 0x8899065E EQ PUSH2 0x218 JUMPI DUP1 PUSH4 0x922DD7DC EQ PUSH2 0x241 JUMPI DUP1 PUSH4 0xB8A8D829 EQ PUSH2 0x26C JUMPI PUSH2 0xDC JUMP JUMPDEST DUP1 PUSH4 0x38DDAEAA GT PUSH2 0xBB JUMPI DUP1 PUSH4 0x38DDAEAA EQ PUSH2 0x168 JUMPI DUP1 PUSH4 0x481C6A75 EQ PUSH2 0x1A5 JUMPI DUP1 PUSH4 0x742205D7 EQ PUSH2 0x1D0 JUMPI DUP1 PUSH4 0x87B636E4 EQ PUSH2 0x1EC JUMPI PUSH2 0xDC JUMP JUMPDEST DUP1 PUSH3 0xC9E3B6 EQ PUSH2 0xE1 JUMPI DUP1 PUSH4 0xFFECF46 EQ PUSH2 0x10A JUMPI DUP1 PUSH4 0x1809BC82 EQ PUSH2 0x14C JUMPI JUMPDEST PUSH1 0x0 DUP1 REVERT JUMPDEST CALLVALUE DUP1 ISZERO PUSH2 0xED JUMPI PUSH1 0x0 DUP1 REVERT JUMPDEST POP PUSH2 0x108 PUSH1 0x4 DUP1 CALLDATASIZE SUB DUP2 ADD SWAP1 PUSH2 0x103 SWAP2 SWAP1 PUSH2 0x19DB JUMP JUMPDEST PUSH2 0x37E JUMP JUMPDEST STOP JUMPDEST CALLVALUE DUP1 ISZERO PUSH2 0x116 JUMPI PUSH1 0x0 DUP1 REVERT JUMPDEST POP PUSH2 0x131 PUSH1 0x4 DUP1 CALLDATASIZE SUB DUP2 ADD SWAP1 PUSH2 0x12C SWAP2 SWAP1 PUSH2 0x1B7C JUMP JUMPDEST PUSH2 0x677 JUMP JUMPDEST PUSH1 0x40 MLOAD PUSH2 0x143 SWAP7 SWAP6 SWAP5 SWAP4 SWAP3 SWAP2 SWAP1 PUSH2 0x1C8C JUMP JUMPDEST PUSH1 0x40 MLOAD DUP1 SWAP2 SUB SWAP1 RETURN JUMPDEST PUSH2 0x166 PUSH1 0x4 DUP1 CALLDATASIZE SUB DUP2 ADD SWAP1 PUSH2 0x161 SWAP2 SWAP1 PUSH2 0x1CED JUMP JUMPDEST PUSH2 0x6F6 JUMP JUMPDEST STOP JUMPDEST CALLVALUE DUP1 ISZERO PUSH2 0x174 JUMPI PUSH1 0x0 DUP1 REVERT JUMPDEST POP PUSH2 0x18F PUSH1 0x4 DUP1 CALLDATASIZE SUB DUP2 ADD SWAP1 PUSH2 0x18A SWAP2 SWAP1 PUSH2 0x1B7C JUMP JUMPDEST PUSH2 0xAAF JUMP JUMPDEST PUSH1 0x40 MLOAD PUSH2 0x19C SWAP2 SWAP1 PUSH2 0x1D3A JUMP JUMPDEST PUSH1 0x40 MLOAD DUP1 SWAP2 SUB SWAP1 RETURN JUMPDEST CALLVALUE DUP1 ISZERO PUSH2 0x1B1 JUMPI PUSH1 0x0 DUP1 REVERT JUMPDEST POP PUSH2 0x1BA PUSH2 0xADD JUMP JUMPDEST PUSH1 0x40 MLOAD PUSH2 0x1C7 SWAP2 SWAP1 PUSH2 0x1D55 JUMP JUMPDEST PUSH1 0x40 MLOAD DUP1 SWAP2 SUB SWAP1 RETURN JUMPDEST PUSH2 0x1EA PUSH1 0x4 DUP1 CALLDATASIZE SUB DUP2 ADD SWAP1 PUSH2 0x1E5 SWAP2 SWAP1 PUSH2 0x1D9C JUMP JUMPDEST PUSH2 0xB03 JUMP JUMPDEST STOP JUMPDEST CALLVALUE DUP1 ISZERO PUSH2 0x1F8 JUMPI PUSH1 0x0 DUP1 REVERT JUMPDEST POP PUSH2 0x201 PUSH2 0xEBD JUMP JUMPDEST PUSH1 0x40 MLOAD PUSH2 0x20F SWAP3 SWAP2 SWAP1 PUSH2 0x1FFB JUMP JUMPDEST PUSH1 0x40 MLOAD DUP1 SWAP2 SUB SWAP1 RETURN JUMPDEST CALLVALUE DUP1 ISZERO PUSH2 0x224 JUMPI PUSH1 0x0 DUP1 REVERT JUMPDEST POP PUSH2 0x23F PUSH1 0x4 DUP1 CALLDATASIZE SUB DUP2 ADD SWAP1 PUSH2 0x23A SWAP2 SWAP1 PUSH2 0x1CED JUMP JUMPDEST PUSH2 0x1041 JUMP JUMPDEST STOP JUMPDEST CALLVALUE DUP1 ISZERO PUSH2 0x24D JUMPI PUSH1 0x0 DUP1 REVERT JUMPDEST POP PUSH2 0x256 PUSH2 0x1385 JUMP JUMPDEST PUSH1 0x40 MLOAD PUSH2 0x263 SWAP2 SWAP1 PUSH2 0x21AE JUMP JUMPDEST PUSH1 0x40 MLOAD DUP1 SWAP2 SUB SWAP1 RETURN JUMPDEST CALLVALUE DUP1 ISZERO PUSH2 0x278 JUMPI PUSH1 0x0 DUP1 REVERT JUMPDEST POP PUSH2 0x293 PUSH1 0x4 DUP1 CALLDATASIZE SUB DUP2 ADD SWAP1 PUSH2 0x28E SWAP2 SWAP1 PUSH2 0x21D0 JUMP JUMPDEST PUSH2 0x164A JUMP JUMPDEST PUSH1 0x40 MLOAD PUSH2 0x2A0 SWAP2 SWAP1 PUSH2 0x2247 JUMP JUMPDEST PUSH1 0x40 MLOAD DUP1 SWAP2 SUB SWAP1 RETURN JUMPDEST CALLVALUE DUP1 ISZERO PUSH2 0x2B5 JUMPI PUSH1 0x0 DUP1 REVERT JUMPDEST POP PUSH2 0x2D0 PUSH1 0x4 DUP1 CALLDATASIZE SUB DUP2 ADD SWAP1 PUSH2 0x2CB SWAP2 SWAP1 PUSH2 0x1CED JUMP JUMPDEST PUSH2 0x16F6 JUMP JUMPDEST PUSH1 0x40 MLOAD PUSH2 0x2DD SWAP2 SWAP1 PUSH2 0x2269 JUMP JUMPDEST PUSH1 0x40 MLOAD DUP1 SWAP2 SUB SWAP1 RETURN JUMPDEST CALLVALUE DUP1 ISZERO PUSH2 0x2F2 JUMPI PUSH1 0x0 DUP1 REVERT JUMPDEST POP PUSH2 0x2FB PUSH2 0x1731 JUMP JUMPDEST PUSH1 0x40 MLOAD PUSH2 0x308 SWAP2 SWAP1 PUSH2 0x1D3A JUMP JUMPDEST PUSH1 0x40 MLOAD DUP1 SWAP2 SUB SWAP1 RETURN JUMPDEST CALLVALUE DUP1 ISZERO PUSH2 0x31D JUMPI PUSH1 0x0 DUP1 REVERT JUMPDEST POP PUSH2 0x338 PUSH1 0x4 DUP1 CALLDATASIZE SUB DUP2 ADD SWAP1 PUSH2 0x333 SWAP2 SWAP1 PUSH2 0x1CED JUMP JUMPDEST PUSH2 0x1737 JUMP JUMPDEST PUSH1 0x40 MLOAD PUSH2 0x34A SWAP7 SWAP6 SWAP5 SWAP4 SWAP3 SWAP2 SWAP1 PUSH2 0x1C8C JUMP JUMPDEST PUSH1 0x40 MLOAD DUP1 SWAP2 SUB SWAP1 RETURN JUMPDEST CALLVALUE DUP1 ISZERO PUSH2 0x35F JUMPI PUSH1 0x0 DUP1 REVERT JUMPDEST POP PUSH2 0x368 PUSH2 0x185D JUMP JUMPDEST PUSH1 0x40 MLOAD PUSH2 0x375 SWAP2 SWAP1 PUSH2 0x1D3A JUMP JUMPDEST PUSH1 0x40 MLOAD DUP1 SWAP2 SUB SWAP1 RETURN JUMPDEST PUSH1 0x4 PUSH1 0x0 SWAP1 SLOAD SWAP1 PUSH2 0x100 EXP SWAP1 DIV PUSH20 0xFFFFFFFFFFFFFFFFFFFFFFFFFFFFFFFFFFFFFFFF AND PUSH20 0xFFFFFFFFFFFFFFFFFFFFFFFFFFFFFFFFFFFFFFFF AND CALLER PUSH20 0xFFFFFFFFFFFFFFFFFFFFFFFFFFFFFFFFFFFFFFFF AND EQ PUSH2 0x40E JUMPI PUSH1 0x40 MLOAD PUSH32 0x8C379A000000000000000000000000000000000000000000000000000000000 DUP2 MSTORE PUSH1 0x4 ADD PUSH2 0x405 SWAP1 PUSH2 0x22F6 JUMP JUMPDEST PUSH1 0x40 MLOAD DUP1 SWAP2 SUB SWAP1 REVERT JUMPDEST PUSH1 0x0 PUSH1 0x1 DUP5 DUP5 PUSH1 0x40 MLOAD PUSH2 0x422 SWAP3 SWAP2 SWAP1 PUSH2 0x2346 JUMP JUMPDEST SWAP1 DUP2 MSTORE PUSH1 0x20 ADD PUSH1 0x40 MLOAD DUP1 SWAP2 SUB SWAP1 KECCAK256 PUSH1 0x0 ADD SLOAD EQ PUSH2 0x474 JUMPI PUSH1 0x40 MLOAD PUSH32 0x8C379A000000000000000000000000000000000000000000000000000000000 DUP2 MSTORE PUSH1 0x4 ADD PUSH2 0x46B SWAP1 PUSH2 0x23D1 JUMP JUMPDEST PUSH1 0x40 MLOAD DUP1 SWAP2 SUB SWAP1 REVERT JUMPDEST PUSH1 0x0 TIMESTAMP SWAP1 POP PUSH1 0x40 MLOAD DUP1 PUSH1 0xC0 ADD PUSH1 0x40 MSTORE DUP1 PUSH1 0x1 PUSH1 0x2 DUP1 SLOAD SWAP1 POP PUSH2 0x496 SWAP2 SWAP1 PUSH2 0x2420 JUMP JUMPDEST DUP2 MSTORE PUSH1 0x20 ADD PUSH1 0x4 PUSH1 0x0 SWAP1 SLOAD SWAP1 PUSH2 0x100 EXP SWAP1 DIV PUSH20 0xFFFFFFFFFFFFFFFFFFFFFFFFFFFFFFFFFFFFFFFF AND PUSH20 0xFFFFFFFFFFFFFFFFFFFFFFFFFFFFFFFFFFFFFFFF AND DUP2 MSTORE PUSH1 0x20 ADD DUP4 DUP2 MSTORE PUSH1 0x20 ADD PUSH1 0x0 PUSH1 0x1 DUP2 GT ISZERO PUSH2 0x4F3 JUMPI PUSH2 0x4F2 PUSH2 0x1C15 JUMP JUMPDEST JUMPDEST DUP2 MSTORE PUSH1 0x20 ADD DUP3 DUP2 MSTORE PUSH1 0x20 ADD PUSH1 0x0 DUP2 MSTORE POP PUSH1 0x1 DUP6 DUP6 PUSH1 0x40 MLOAD PUSH2 0x515 SWAP3 SWAP2 SWAP1 PUSH2 0x2346 JUMP JUMPDEST SWAP1 DUP2 MSTORE PUSH1 0x20 ADD PUSH1 0x40 MLOAD DUP1 SWAP2 SUB SWAP1 KECCAK256 PUSH1 0x0 DUP3 ADD MLOAD DUP2 PUSH1 0x0 ADD SSTORE PUSH1 0x20 DUP3 ADD MLOAD DUP2 PUSH1 0x1 ADD PUSH1 0x0 PUSH2 0x100 EXP DUP2 SLOAD DUP2 PUSH20 0xFFFFFFFFFFFFFFFFFFFFFFFFFFFFFFFFFFFFFFFF MUL NOT AND SWAP1 DUP4 PUSH20 0xFFFFFFFFFFFFFFFFFFFFFFFFFFFFFFFFFFFFFFFF AND MUL OR SWAP1 SSTORE POP PUSH1 0x40 DUP3 ADD MLOAD DUP2 PUSH1 0x2 ADD SSTORE PUSH1 0x60 DUP3 ADD MLOAD DUP2 PUSH1 0x3 ADD PUSH1 0x0 PUSH2 0x100 EXP DUP2 SLOAD DUP2 PUSH1 0xFF MUL NOT AND SWAP1 DUP4 PUSH1 0x1 DUP2 GT ISZERO PUSH2 0x5A9 JUMPI PUSH2 0x5A8 PUSH2 0x1C15 JUMP JUMPDEST JUMPDEST MUL OR SWAP1 SSTORE POP PUSH1 0x80 DUP3 ADD MLOAD DUP2 PUSH1 0x4 ADD SSTORE PUSH1 0xA0 DUP3 ADD MLOAD DUP2 PUSH1 0x5 ADD SSTORE SWAP1 POP POP PUSH1 0x2 DUP5 DUP5 SWAP1 SWAP2 DUP1 PUSH1 0x1 DUP2 SLOAD ADD DUP1 DUP3 SSTORE DUP1 SWAP2 POP POP PUSH1 0x1 SWAP1 SUB SWAP1 PUSH1 0x0 MSTORE PUSH1 0x20 PUSH1 0x0 KECCAK256 ADD PUSH1 0x0 SWAP1 SWAP2 SWAP3 SWAP1 SWAP2 SWAP3 SWAP1 SWAP2 SWAP3 SWAP1 SWAP2 SWAP3 POP SWAP2 DUP3 PUSH2 0x602 SWAP3 SWAP2 SWAP1 PUSH2 0x266B JUMP JUMPDEST POP PUSH1 0x2 DUP1 SLOAD SWAP1 POP PUSH1 0x3 DUP6 DUP6 PUSH1 0x40 MLOAD PUSH2 0x61B SWAP3 SWAP2 SWAP1 PUSH2 0x2346 JUMP JUMPDEST SWAP1 DUP2 MSTORE PUSH1 0x20 ADD PUSH1 0x40 MLOAD DUP1 SWAP2 SUB SWAP1 KECCAK256 DUP2 SWAP1 SSTORE POP PUSH32 0xB12A1685C8C531E82B68EA5AC264F4495953432D3104BC761292CD6BA93F4DA6 DUP5 DUP5 PUSH1 0x2 DUP1 SLOAD SWAP1 POP DUP6 DUP6 PUSH1 0x40 MLOAD PUSH2 0x669 SWAP6 SWAP5 SWAP4 SWAP3 SWAP2 SWAP1 PUSH2 0x2768 JUMP JUMPDEST PUSH1 0x40 MLOAD DUP1 SWAP2 SUB SWAP1 LOG1 POP POP POP POP JUMP JUMPDEST PUSH1 0x1 DUP2 DUP1 MLOAD PUSH1 0x20 DUP2 ADD DUP3 ADD DUP1 MLOAD DUP5 DUP3 MSTORE PUSH1 0x20 DUP4 ADD PUSH1 0x20 DUP6 ADD KECCAK256 DUP2 DUP4 MSTORE DUP1 SWAP6 POP POP POP POP POP POP PUSH1 0x0 SWAP2 POP SWAP1 POP DUP1 PUSH1 0x0 ADD SLOAD SWAP1 DUP1 PUSH1 0x1 ADD PUSH1 0x0 SWAP1 SLOAD SWAP1 PUSH2 0x100 EXP SWAP1 DIV PUSH20 0xFFFFFFFFFFFFFFFFFFFFFFFFFFFFFFFFFFFFFFFF AND SWAP1 DUP1 PUSH1 0x2 ADD SLOAD SWAP1 DUP1 PUSH1 0x3 ADD PUSH1 0x0 SWAP1 SLOAD SWAP1 PUSH2 0x100 EXP SWAP1 DIV PUSH1 0xFF AND SWAP1 DUP1 PUSH1 0x4 ADD SLOAD SWAP1 DUP1 PUSH1 0x5 ADD SLOAD SWAP1 POP DUP7 JUMP JUMPDEST DUP2 DUP2 DUP1 DUP1 PUSH1 0x1F ADD PUSH1 0x20 DUP1 SWAP2 DIV MUL PUSH1 0x20 ADD PUSH1 0x40 MLOAD SWAP1 DUP2 ADD PUSH1 0x40 MSTORE DUP1 SWAP4 SWAP3 SWAP2 SWAP1 DUP2 DUP2 MSTORE PUSH1 0x20 ADD DUP4 DUP4 DUP1 DUP3 DUP5 CALLDATACOPY PUSH1 0x0 DUP2 DUP5 ADD MSTORE PUSH1 0x1F NOT PUSH1 0x1F DUP3 ADD AND SWAP1 POP DUP1 DUP4 ADD SWAP3 POP POP POP POP POP POP POP PUSH1 0x0 PUSH1 0x1 DUP3 PUSH1 0x40 MLOAD PUSH2 0x74D SWAP2 SWAP1 PUSH2 0x27E7 JUMP JUMPDEST SWAP1 DUP2 MSTORE PUSH1 0x20 ADD PUSH1 0x40 MLOAD DUP1 SWAP2 SUB SWAP1 KECCAK256 PUSH1 0x0 ADD SLOAD GT PUSH2 0x79F JUMPI PUSH1 0x40 MLOAD PUSH32 0x8C379A000000000000000000000000000000000000000000000000000000000 DUP2 MSTORE PUSH1 0x4 ADD PUSH2 0x796 SWAP1 PUSH2 0x284A JUMP JUMPDEST PUSH1 0x40 MLOAD DUP1 SWAP2 SUB SWAP1 REVERT JUMPDEST PUSH1 0x4 PUSH1 0x0 SWAP1 SLOAD SWAP1 PUSH2 0x100 EXP SWAP1 DIV PUSH20 0xFFFFFFFFFFFFFFFFFFFFFFFFFFFFFFFFFFFFFFFF AND PUSH20 0xFFFFFFFFFFFFFFFFFFFFFFFFFFFFFFFFFFFFFFFF AND CALLER PUSH20 0xFFFFFFFFFFFFFFFFFFFFFFFFFFFFFFFFFFFFFFFF AND SUB PUSH2 0x82F JUMPI PUSH1 0x40 MLOAD PUSH32 0x8C379A000000000000000000000000000000000000000000000000000000000 DUP2 MSTORE PUSH1 0x4 ADD PUSH2 0x826 SWAP1 PUSH2 0x28DC JUMP JUMPDEST PUSH1 0x40 MLOAD DUP1 SWAP2 SUB SWAP1 REVERT JUMPDEST PUSH1 0x0 PUSH1 0x1 DUP5 DUP5 PUSH1 0x40 MLOAD PUSH2 0x843 SWAP3 SWAP2 SWAP1 PUSH2 0x2346 JUMP JUMPDEST SWAP1 DUP2 MSTORE PUSH1 0x20 ADD PUSH1 0x40 MLOAD DUP1 SWAP2 SUB SWAP1 KECCAK256 SWAP1 POP PUSH1 0x0 PUSH1 0x1 DUP2 GT ISZERO PUSH2 0x867 JUMPI PUSH2 0x866 PUSH2 0x1C15 JUMP JUMPDEST JUMPDEST DUP2 PUSH1 0x3 ADD PUSH1 0x0 SWAP1 SLOAD SWAP1 PUSH2 0x100 EXP SWAP1 DIV PUSH1 0xFF AND PUSH1 0x1 DUP2 GT ISZERO PUSH2 0x88B JUMPI PUSH2 0x88A PUSH2 0x1C15 JUMP JUMPDEST JUMPDEST EQ PUSH2 0x8CB JUMPI PUSH1 0x40 MLOAD PUSH32 0x8C379A000000000000000000000000000000000000000000000000000000000 DUP2 MSTORE PUSH1 0x4 ADD PUSH2 0x8C2 SWAP1 PUSH2 0x2948 JUMP JUMPDEST PUSH1 0x40 MLOAD DUP1 SWAP2 SUB SWAP1 REVERT JUMPDEST DUP1 PUSH1 0x2 ADD SLOAD CALLVALUE LT ISZERO PUSH2 0x912 JUMPI PUSH1 0x40 MLOAD PUSH32 0x8C379A000000000000000000000000000000000000000000000000000000000 DUP2 MSTORE PUSH1 0x4 ADD PUSH2 0x909 SWAP1 PUSH2 0x29B4 JUMP JUMPDEST PUSH1 0x40 MLOAD DUP1 SWAP2 SUB SWAP1 REVERT JUMPDEST PUSH1 0x0 DUP2 PUSH1 0x1 ADD PUSH1 0x0 SWAP1 SLOAD SWAP1 PUSH2 0x100 EXP SWAP1 DIV PUSH20 0xFFFFFFFFFFFFFFFFFFFFFFFFFFFFFFFFFFFFFFFF AND SWAP1 POP CALLER DUP3 PUSH1 0x1 ADD PUSH1 0x0 PUSH2 0x100 EXP DUP2 SLOAD DUP2 PUSH20 0xFFFFFFFFFFFFFFFFFFFFFFFFFFFFFFFFFFFFFFFF MUL NOT AND SWAP1 DUP4 PUSH20 0xFFFFFFFFFFFFFFFFFFFFFFFFFFFFFFFFFFFFFFFF AND MUL OR SWAP1 SSTORE POP PUSH1 0x1 DUP3 PUSH1 0x3 ADD PUSH1 0x0 PUSH2 0x100 EXP DUP2 SLOAD DUP2 PUSH1 0xFF MUL NOT AND SWAP1 DUP4 PUSH1 0x1 DUP2 GT ISZERO PUSH2 0x9A6 JUMPI PUSH2 0x9A5 PUSH2 0x1C15 JUMP JUMPDEST JUMPDEST MUL OR SWAP1 SSTORE POP TIMESTAMP DUP3 PUSH1 0x5 ADD DUP2 SWAP1 SSTORE POP PUSH32 0x1DB318F0DB32BA71BB6BA99636451CAE83FEB4B7982A04710044F45235BE392E DUP6 DUP6 DUP5 PUSH1 0x0 ADD SLOAD CALLER DUP7 PUSH1 0x5 ADD SLOAD PUSH1 0x40 MLOAD PUSH2 0x9F3 SWAP6 SWAP5 SWAP4 SWAP3 SWAP2 SWAP1 PUSH2 0x29D4 JUMP JUMPDEST PUSH1 0x40 MLOAD DUP1 SWAP2 SUB SWAP1 LOG1 PUSH1 0x0 DUP2 PUSH20 0xFFFFFFFFFFFFFFFFFFFFFFFFFFFFFFFFFFFFFFFF AND CALLVALUE PUSH1 0x40 MLOAD PUSH2 0xA21 SWAP1 PUSH2 0x2A53 JUMP JUMPDEST PUSH1 0x0 PUSH1 0x40 MLOAD DUP1 DUP4 SUB DUP2 DUP6 DUP8 GAS CALL SWAP3 POP POP POP RETURNDATASIZE DUP1 PUSH1 0x0 DUP2 EQ PUSH2 0xA5E JUMPI PUSH1 0x40 MLOAD SWAP2 POP PUSH1 0x1F NOT PUSH1 0x3F RETURNDATASIZE ADD AND DUP3 ADD PUSH1 0x40 MSTORE RETURNDATASIZE DUP3 MSTORE RETURNDATASIZE PUSH1 0x0 PUSH1 0x20 DUP5 ADD RETURNDATACOPY PUSH2 0xA63 JUMP JUMPDEST PUSH1 0x60 SWAP2 POP JUMPDEST POP POP SWAP1 POP DUP1 PUSH2 0xAA7 JUMPI PUSH1 0x40 MLOAD PUSH32 0x8C379A000000000000000000000000000000000000000000000000000000000 DUP2 MSTORE PUSH1 0x4 ADD PUSH2 0xA9E SWAP1 PUSH2 0x2ADA JUMP JUMPDEST PUSH1 0x40 MLOAD DUP1 SWAP2 SUB SWAP1 REVERT JUMPDEST POP POP POP POP POP POP JUMP JUMPDEST PUSH1 0x3 DUP2 DUP1 MLOAD PUSH1 0x20 DUP2 ADD DUP3 ADD DUP1 MLOAD DUP5 DUP3 MSTORE PUSH1 0x20 DUP4 ADD PUSH1 0x20 DUP6 ADD KECCAK256 DUP2 DUP4 MSTORE DUP1 SWAP6 POP POP POP POP POP POP PUSH1 0x0 SWAP2 POP SWAP1 POP SLOAD DUP2 JUMP JUMPDEST PUSH1 0x4 PUSH1 0x0 SWAP1 SLOAD SWAP1 PUSH2 0x100 EXP SWAP1 DIV PUSH20 0xFFFFFFFFFFFFFFFFFFFFFFFFFFFFFFFFFFFFFFFF AND DUP2 JUMP JUMPDEST DUP3 DUP3 DUP1 DUP1 PUSH1 0x1F ADD PUSH1 0x20 DUP1 SWAP2 DIV MUL PUSH1 0x20 ADD PUSH1 0x40 MLOAD SWAP1 DUP2 ADD PUSH1 0x40 MSTORE DUP1 SWAP4 SWAP3 SWAP2 SWAP1 DUP2 DUP2 MSTORE PUSH1 0x20 ADD DUP4 DUP4 DUP1 DUP3 DUP5 CALLDATACOPY PUSH1 0x0 DUP2 DUP5 ADD MSTORE PUSH1 0x1F NOT PUSH1 0x1F DUP3 ADD AND SWAP1 POP DUP1 DUP4 ADD SWAP3 POP POP POP POP POP POP POP PUSH1 0x0 PUSH1 0x1 DUP3 PUSH1 0x40 MLOAD PUSH2 0xB5A SWAP2 SWAP1 PUSH2 0x27E7 JUMP JUMPDEST SWAP1 DUP2 MSTORE PUSH1 0x20 ADD PUSH1 0x40 MLOAD DUP1 SWAP2 SUB SWAP1 KECCAK256 PUSH1 0x0 ADD SLOAD GT PUSH2 0xBAC JUMPI PUSH1 0x40 MLOAD PUSH32 0x8C379A000000000000000000000000000000000000000000000000000000000 DUP2 MSTORE PUSH1 0x4 ADD PUSH2 0xBA3 SWAP1 PUSH2 0x284A JUMP JUMPDEST PUSH1 0x40 MLOAD DUP1 SWAP2 SUB SWAP1 REVERT JUMPDEST PUSH1 0x4 PUSH1 0x0 SWAP1 SLOAD SWAP1 PUSH2 0x100 EXP SWAP1 DIV PUSH20 0xFFFFFFFFFFFFFFFFFFFFFFFFFFFFFFFFFFFFFFFF AND PUSH20 0xFFFFFFFFFFFFFFFFFFFFFFFFFFFFFFFFFFFFFFFF AND CALLER PUSH20 0xFFFFFFFFFFFFFFFFFFFFFFFFFFFFFFFFFFFFFFFF AND SUB PUSH2 0xC3C JUMPI PUSH1 0x40 MLOAD PUSH32 0x8C379A000000000000000000000000000000000000000000000000000000000 DUP2 MSTORE PUSH1 0x4 ADD PUSH2 0xC33 SWAP1 PUSH2 0x28DC JUMP JUMPDEST PUSH1 0x40 MLOAD DUP1 SWAP2 SUB SWAP1 REVERT JUMPDEST PUSH1 0x0 PUSH1 0x1 DUP6 DUP6 PUSH1 0x40 MLOAD PUSH2 0xC50 SWAP3 SWAP2 SWAP1 PUSH2 0x2346 JUMP JUMPDEST SWAP1 DUP2 MSTORE PUSH1 0x20 ADD PUSH1 0x40 MLOAD DUP1 SWAP2 SUB SWAP1 KECCAK256 SWAP1 POP PUSH1 0x0 PUSH1 0x1 DUP2 GT ISZERO PUSH2 0xC74 JUMPI PUSH2 0xC73 PUSH2 0x1C15 JUMP JUMPDEST JUMPDEST DUP2 PUSH1 0x3 ADD PUSH1 0x0 SWAP1 SLOAD SWAP1 PUSH2 0x100 EXP SWAP1 DIV PUSH1 0xFF AND PUSH1 0x1 DUP2 GT ISZERO PUSH2 0xC98 JUMPI PUSH2 0xC97 PUSH2 0x1C15 JUMP JUMPDEST JUMPDEST EQ PUSH2 0xCD8 JUMPI PUSH1 0x40 MLOAD PUSH32 0x8C379A000000000000000000000000000000000000000000000000000000000 DUP2 MSTORE PUSH1 0x4 ADD PUSH2 0xCCF SWAP1 PUSH2 0x2948 JUMP JUMPDEST PUSH1 0x40 MLOAD DUP1 SWAP2 SUB SWAP1 REVERT JUMPDEST DUP1 PUSH1 0x2 ADD SLOAD CALLVALUE LT ISZERO PUSH2 0xD1F JUMPI PUSH1 0x40 MLOAD PUSH32 0x8C379A000000000000000000000000000000000000000000000000000000000 DUP2 MSTORE PUSH1 0x4 ADD PUSH2 0xD16 SWAP1 PUSH2 0x29B4 JUMP JUMPDEST PUSH1 0x40 MLOAD DUP1 SWAP2 SUB SWAP1 REVERT JUMPDEST PUSH1 0x0 DUP2 PUSH1 0x1 ADD PUSH1 0x0 SWAP1 SLOAD SWAP1 PUSH2 0x100 EXP SWAP1 DIV PUSH20 0xFFFFFFFFFFFFFFFFFFFFFFFFFFFFFFFFFFFFFFFF AND SWAP1 POP DUP4 DUP3 PUSH1 0x1 ADD PUSH1 0x0 PUSH2 0x100 EXP DUP2 SLOAD DUP2 PUSH20 0xFFFFFFFFFFFFFFFFFFFFFFFFFFFFFFFFFFFFFFFF MUL NOT AND SWAP1 DUP4 PUSH20 0xFFFFFFFFFFFFFFFFFFFFFFFFFFFFFFFFFFFFFFFF AND MUL OR SWAP1 SSTORE POP PUSH1 0x1 DUP3 PUSH1 0x3 ADD PUSH1 0x0 PUSH2 0x100 EXP DUP2 SLOAD DUP2 PUSH1 0xFF MUL NOT AND SWAP1 DUP4 PUSH1 0x1 DUP2 GT ISZERO PUSH2 0xDB3 JUMPI PUSH2 0xDB2 PUSH2 0x1C15 JUMP JUMPDEST JUMPDEST MUL OR SWAP1 SSTORE POP TIMESTAMP DUP3 PUSH1 0x5 ADD DUP2 SWAP1 SSTORE POP PUSH32 0x1DB318F0DB32BA71BB6BA99636451CAE83FEB4B7982A04710044F45235BE392E DUP7 DUP7 DUP5 PUSH1 0x0 ADD SLOAD DUP8 DUP7 PUSH1 0x5 ADD SLOAD PUSH1 0x40 MLOAD PUSH2 0xE00 SWAP6 SWAP5 SWAP4 SWAP3 SWAP2 SWAP1 PUSH2 0x29D4 JUMP JUMPDEST PUSH1 0x40 MLOAD DUP1 SWAP2 SUB SWAP1 LOG1 PUSH1 0x0 DUP2 PUSH20 0xFFFFFFFFFFFFFFFFFFFFFFFFFFFFFFFFFFFFFFFF AND CALLVALUE PUSH1 0x40 MLOAD PUSH2 0xE2E SWAP1 PUSH2 0x2A53 JUMP JUMPDEST PUSH1 0x0 PUSH1 0x40 MLOAD DUP1 DUP4 SUB DUP2 DUP6 DUP8 GAS CALL SWAP3 POP POP POP RETURNDATASIZE DUP1 PUSH1 0x0 DUP2 EQ PUSH2 0xE6B JUMPI PUSH1 0x40 MLOAD SWAP2 POP PUSH1 0x1F NOT PUSH1 0x3F RETURNDATASIZE ADD AND DUP3 ADD PUSH1 0x40 MSTORE RETURNDATASIZE DUP3 MSTORE RETURNDATASIZE PUSH1 0x0 PUSH1 0x20 DUP5 ADD RETURNDATACOPY PUSH2 0xE70 JUMP JUMPDEST PUSH1 0x60 SWAP2 POP JUMPDEST POP POP SWAP1 POP DUP1 PUSH2 0xEB4 JUMPI PUSH1 0x40 MLOAD PUSH32 0x8C379A000000000000000000000000000000000000000000000000000000000 DUP2 MSTORE PUSH1 0x4 ADD PUSH2 0xEAB SWAP1 PUSH2 0x2ADA JUMP JUMPDEST PUSH1 0x40 MLOAD DUP1 SWAP2 SUB SWAP1 REVERT JUMPDEST POP POP POP POP POP POP POP JUMP JUMPDEST PUSH1 0x60 DUP1 PUSH1 0x0 PUSH1 0x2 DUP1 SLOAD SWAP1 POP PUSH8 0xFFFFFFFFFFFFFFFF DUP2 GT ISZERO PUSH2 0xEE1 JUMPI PUSH2 0xEE0 PUSH2 0x1A51 JUMP JUMPDEST JUMPDEST PUSH1 0x40 MLOAD SWAP1 DUP1 DUP3 MSTORE DUP1 PUSH1 0x20 MUL PUSH1 0x20 ADD DUP3 ADD PUSH1 0x40 MSTORE DUP1 ISZERO PUSH2 0xF0F JUMPI DUP2 PUSH1 0x20 ADD PUSH1 0x20 DUP3 MUL DUP1 CALLDATASIZE DUP4 CALLDATACOPY DUP1 DUP3 ADD SWAP2 POP POP SWAP1 POP JUMPDEST POP SWAP1 POP PUSH1 0x0 JUMPDEST PUSH1 0x2 DUP1 SLOAD SWAP1 POP DUP2 LT ISZERO PUSH2 0xF61 JUMPI PUSH1 0x1 DUP2 PUSH2 0xF2F SWAP2 SWAP1 PUSH2 0x2420 JUMP JUMPDEST DUP3 DUP3 DUP2 MLOAD DUP2 LT PUSH2 0xF42 JUMPI PUSH2 0xF41 PUSH2 0x2AFA JUMP JUMPDEST JUMPDEST PUSH1 0x20 MUL PUSH1 0x20 ADD ADD DUP2 DUP2 MSTORE POP POP DUP1 DUP1 PUSH2 0xF59 SWAP1 PUSH2 0x2B29 JUMP JUMPDEST SWAP2 POP POP PUSH2 0xF15 JUMP JUMPDEST POP PUSH1 0x2 DUP2 DUP2 DUP1 SLOAD DUP1 PUSH1 0x20 MUL PUSH1 0x20 ADD PUSH1 0x40 MLOAD SWAP1 DUP2 ADD PUSH1 0x40 MSTORE DUP1 SWAP3 SWAP2 SWAP1 DUP2 DUP2 MSTORE PUSH1 0x20 ADD PUSH1 0x0 SWAP1 JUMPDEST DUP3 DUP3 LT ISZERO PUSH2 0x1032 JUMPI DUP4 DUP3 SWAP1 PUSH1 0x0 MSTORE PUSH1 0x20 PUSH1 0x0 KECCAK256 ADD DUP1 SLOAD PUSH2 0xFA5 SWAP1 PUSH2 0x248E JUMP JUMPDEST DUP1 PUSH1 0x1F ADD PUSH1 0x20 DUP1 SWAP2 DIV MUL PUSH1 0x20 ADD PUSH1 0x40 MLOAD SWAP1 DUP2 ADD PUSH1 0x40 MSTORE DUP1 SWAP3 SWAP2 SWAP1 DUP2 DUP2 MSTORE PUSH1 0x20 ADD DUP3 DUP1 SLOAD PUSH2 0xFD1 SWAP1 PUSH2 0x248E JUMP JUMPDEST DUP1 ISZERO PUSH2 0x101E JUMPI DUP1 PUSH1 0x1F LT PUSH2 0xFF3 JUMPI PUSH2 0x100 DUP1 DUP4 SLOAD DIV MUL DUP4 MSTORE SWAP2 PUSH1 0x20 ADD SWAP2 PUSH2 0x101E JUMP JUMPDEST DUP3 ADD SWAP2 SWAP1 PUSH1 0x0 MSTORE PUSH1 0x20 PUSH1 0x0 KECCAK256 SWAP1 JUMPDEST DUP2 SLOAD DUP2 MSTORE SWAP1 PUSH1 0x1 ADD SWAP1 PUSH1 0x20 ADD DUP1 DUP4 GT PUSH2 0x1001 JUMPI DUP3 SWAP1 SUB PUSH1 0x1F AND DUP3 ADD SWAP2 JUMPDEST POP POP POP POP POP DUP2 MSTORE PUSH1 0x20 ADD SWAP1 PUSH1 0x1 ADD SWAP1 PUSH2 0xF86 JUMP JUMPDEST POP POP POP POP SWAP2 POP SWAP3 POP SWAP3 POP POP SWAP1 SWAP2 JUMP JUMPDEST PUSH1 0x4 PUSH1 0x0 SWAP1 SLOAD SWAP1 PUSH2 0x100 EXP SWAP1 DIV PUSH20 0xFFFFFFFFFFFFFFFFFFFFFFFFFFFFFFFFFFFFFFFF AND PUSH20 0xFFFFFFFFFFFFFFFFFFFFFFFFFFFFFFFFFFFFFFFF AND CALLER PUSH20 0xFFFFFFFFFFFFFFFFFFFFFFFFFFFFFFFFFFFFFFFF AND EQ PUSH2 0x10D1 JUMPI PUSH1 0x40 MLOAD PUSH32 0x8C379A000000000000000000000000000000000000000000000000000000000 DUP2 MSTORE PUSH1 0x4 ADD PUSH2 0x10C8 SWAP1 PUSH2 0x22F6 JUMP JUMPDEST PUSH1 0x40 MLOAD DUP1 SWAP2 SUB SWAP1 REVERT JUMPDEST DUP2 DUP2 DUP1 DUP1 PUSH1 0x1F ADD PUSH1 0x20 DUP1 SWAP2 DIV MUL PUSH1 0x20 ADD PUSH1 0x40 MLOAD SWAP1 DUP2 ADD PUSH1 0x40 MSTORE DUP1 SWAP4 SWAP3 SWAP2 SWAP1 DUP2 DUP2 MSTORE PUSH1 0x20 ADD DUP4 DUP4 DUP1 DUP3 DUP5 CALLDATACOPY PUSH1 0x0 DUP2 DUP5 ADD MSTORE PUSH1 0x1F NOT PUSH1 0x1F DUP3 ADD AND SWAP1 POP DUP1 DUP4 ADD SWAP3 POP POP POP POP POP POP POP PUSH1 0x0 PUSH1 0x1 DUP3 PUSH1 0x40 MLOAD PUSH2 0x1128 SWAP2 SWAP1 PUSH2 0x27E7 JUMP JUMPDEST SWAP1 DUP2 MSTORE PUSH1 0x20 ADD PUSH1 0x40 MLOAD DUP1 SWAP2 SUB SWAP1 KECCAK256 PUSH1 0x0 ADD SLOAD GT PUSH2 0x117A JUMPI PUSH1 0x40 MLOAD PUSH32 0x8C379A000000000000000000000000000000000000000000000000000000000 DUP2 MSTORE PUSH1 0x4 ADD PUSH2 0x1171 SWAP1 PUSH2 0x284A JUMP JUMPDEST PUSH1 0x40 MLOAD DUP1 SWAP2 SUB SWAP1 REVERT JUMPDEST PUSH1 0x0 PUSH1 0x1 PUSH1 0x3 DUP6 DUP6 PUSH1 0x40 MLOAD PUSH2 0x1190 SWAP3 SWAP2 SWAP1 PUSH2 0x2346 JUMP JUMPDEST SWAP1 DUP2 MSTORE PUSH1 0x20 ADD PUSH1 0x40 MLOAD DUP1 SWAP2 SUB SWAP1 KECCAK256 SLOAD PUSH2 0x11A9 SWAP2 SWAP1 PUSH2 0x2B71 JUMP JUMPDEST SWAP1 POP PUSH1 0x2 DUP1 SLOAD SWAP1 POP DUP2 LT PUSH2 0x11F2 JUMPI PUSH1 0x40 MLOAD PUSH32 0x8C379A000000000000000000000000000000000000000000000000000000000 DUP2 MSTORE PUSH1 0x4 ADD PUSH2 0x11E9 SWAP1 PUSH2 0x2BF1 JUMP JUMPDEST PUSH1 0x40 MLOAD DUP1 SWAP2 SUB SWAP1 REVERT JUMPDEST PUSH1 0x2 PUSH1 0x1 PUSH1 0x2 DUP1 SLOAD SWAP1 POP PUSH2 0x1206 SWAP2 SWAP1 PUSH2 0x2B71 JUMP JUMPDEST DUP2 SLOAD DUP2 LT PUSH2 0x1217 JUMPI PUSH2 0x1216 PUSH2 0x2AFA JUMP JUMPDEST JUMPDEST SWAP1 PUSH1 0x0 MSTORE PUSH1 0x20 PUSH1 0x0 KECCAK256 ADD PUSH1 0x2 DUP3 DUP2 SLOAD DUP2 LT PUSH2 0x1235 JUMPI PUSH2 0x1234 PUSH2 0x2AFA JUMP JUMPDEST JUMPDEST SWAP1 PUSH1 0x0 MSTORE PUSH1 0x20 PUSH1 0x0 KECCAK256 ADD SWAP1 DUP2 PUSH2 0x124B SWAP2 SWAP1 PUSH2 0x2C3C JUMP JUMPDEST POP PUSH1 0x2 DUP1 SLOAD DUP1 PUSH2 0x125E JUMPI PUSH2 0x125D PUSH2 0x2D24 JUMP JUMPDEST JUMPDEST PUSH1 0x1 SWAP1 SUB DUP2 DUP2 SWAP1 PUSH1 0x0 MSTORE PUSH1 0x20 PUSH1 0x0 KECCAK256 ADD PUSH1 0x0 PUSH2 0x127A SWAP2 SWAP1 PUSH2 0x186A JUMP JUMPDEST SWAP1 SSTORE PUSH1 0x1 DUP2 PUSH2 0x1289 SWAP2 SWAP1 PUSH2 0x2420 JUMP JUMPDEST PUSH1 0x3 PUSH1 0x2 DUP4 DUP2 SLOAD DUP2 LT PUSH2 0x129F JUMPI PUSH2 0x129E PUSH2 0x2AFA JUMP JUMPDEST JUMPDEST SWAP1 PUSH1 0x0 MSTORE PUSH1 0x20 PUSH1 0x0 KECCAK256 ADD PUSH1 0x40 MLOAD PUSH2 0x12B6 SWAP2 SWAP1 PUSH2 0x2DD6 JUMP JUMPDEST SWAP1 DUP2 MSTORE PUSH1 0x20 ADD PUSH1 0x40 MLOAD DUP1 SWAP2 SUB SWAP1 KECCAK256 DUP2 SWAP1 SSTORE POP PUSH1 0x1 DUP5 DUP5 PUSH1 0x40 MLOAD PUSH2 0x12DA SWAP3 SWAP2 SWAP1 PUSH2 0x2346 JUMP JUMPDEST SWAP1 DUP2 MSTORE PUSH1 0x20 ADD PUSH1 0x40 MLOAD DUP1 SWAP2 SUB SWAP1 KECCAK256 PUSH1 0x0 DUP1 DUP3 ADD PUSH1 0x0 SWAP1 SSTORE PUSH1 0x1 DUP3 ADD PUSH1 0x0 PUSH2 0x100 EXP DUP2 SLOAD SWAP1 PUSH20 0xFFFFFFFFFFFFFFFFFFFFFFFFFFFFFFFFFFFFFFFF MUL NOT AND SWAP1 SSTORE PUSH1 0x2 DUP3 ADD PUSH1 0x0 SWAP1 SSTORE PUSH1 0x3 DUP3 ADD PUSH1 0x0 PUSH2 0x100 EXP DUP2 SLOAD SWAP1 PUSH1 0xFF MUL NOT AND SWAP1 SSTORE PUSH1 0x4 DUP3 ADD PUSH1 0x0 SWAP1 SSTORE PUSH1 0x5 DUP3 ADD PUSH1 0x0 SWAP1 SSTORE POP POP PUSH32 0x1E0764C50F8F6CC4C941469F592B8CAAA82084D800AE431D73559E1F17B498BB DUP5 DUP5 PUSH1 0x40 MLOAD PUSH2 0x1377 SWAP3 SWAP2 SWAP1 PUSH2 0x2DED JUMP JUMPDEST PUSH1 0x40 MLOAD DUP1 SWAP2 SUB SWAP1 LOG1 POP POP POP POP JUMP JUMPDEST PUSH1 0x60 PUSH1 0x0 PUSH1 0x2 DUP1 SLOAD SWAP1 POP PUSH8 0xFFFFFFFFFFFFFFFF DUP2 GT ISZERO PUSH2 0x13A8 JUMPI PUSH2 0x13A7 PUSH2 0x1A51 JUMP JUMPDEST JUMPDEST PUSH1 0x40 MLOAD SWAP1 DUP1 DUP3 MSTORE DUP1 PUSH1 0x20 MUL PUSH1 0x20 ADD DUP3 ADD PUSH1 0x40 MSTORE DUP1 ISZERO PUSH2 0x13E1 JUMPI DUP2 PUSH1 0x20 ADD JUMPDEST PUSH2 0x13CE PUSH2 0x18AA JUMP JUMPDEST DUP2 MSTORE PUSH1 0x20 ADD SWAP1 PUSH1 0x1 SWAP1 SUB SWAP1 DUP2 PUSH2 0x13C6 JUMPI SWAP1 POP JUMPDEST POP SWAP1 POP PUSH1 0x0 JUMPDEST PUSH1 0x2 DUP1 SLOAD SWAP1 POP DUP2 LT ISZERO PUSH2 0x1642 JUMPI PUSH1 0x0 PUSH1 0x1 PUSH1 0x2 DUP4 DUP2 SLOAD DUP2 LT PUSH2 0x140C JUMPI PUSH2 0x140B PUSH2 0x2AFA JUMP JUMPDEST JUMPDEST SWAP1 PUSH1 0x0 MSTORE PUSH1 0x20 PUSH1 0x0 KECCAK256 ADD PUSH1 0x40 MLOAD PUSH2 0x1423 SWAP2 SWAP1 PUSH2 0x2DD6 JUMP JUMPDEST SWAP1 DUP2 MSTORE PUSH1 0x20 ADD PUSH1 0x40 MLOAD DUP1 SWAP2 SUB SWAP1 KECCAK256 PUSH1 0x40 MLOAD DUP1 PUSH1 0xC0 ADD PUSH1 0x40 MSTORE SWAP1 DUP2 PUSH1 0x0 DUP3 ADD SLOAD DUP2 MSTORE PUSH1 0x20 ADD PUSH1 0x1 DUP3 ADD PUSH1 0x0 SWAP1 SLOAD SWAP1 PUSH2 0x100 EXP SWAP1 DIV PUSH20 0xFFFFFFFFFFFFFFFFFFFFFFFFFFFFFFFFFFFFFFFF AND PUSH20 0xFFFFFFFFFFFFFFFFFFFFFFFFFFFFFFFFFFFFFFFF AND PUSH20 0xFFFFFFFFFFFFFFFFFFFFFFFFFFFFFFFFFFFFFFFF AND DUP2 MSTORE PUSH1 0x20 ADD PUSH1 0x2 DUP3 ADD SLOAD DUP2 MSTORE PUSH1 0x20 ADD PUSH1 0x3 DUP3 ADD PUSH1 0x0 SWAP1 SLOAD SWAP1 PUSH2 0x100 EXP SWAP1 DIV PUSH1 0xFF AND PUSH1 0x1 DUP2 GT ISZERO PUSH2 0x14CB JUMPI PUSH2 0x14CA PUSH2 0x1C15 JUMP JUMPDEST JUMPDEST PUSH1 0x1 DUP2 GT ISZERO PUSH2 0x14DD JUMPI PUSH2 0x14DC PUSH2 0x1C15 JUMP JUMPDEST JUMPDEST DUP2 MSTORE PUSH1 0x20 ADD PUSH1 0x4 DUP3 ADD SLOAD DUP2 MSTORE PUSH1 0x20 ADD PUSH1 0x5 DUP3 ADD SLOAD DUP2 MSTORE POP POP SWAP1 POP PUSH1 0x40 MLOAD DUP1 PUSH1 0xE0 ADD PUSH1 0x40 MSTORE DUP1 PUSH1 0x2 DUP5 DUP2 SLOAD DUP2 LT PUSH2 0x1516 JUMPI PUSH2 0x1515 PUSH2 0x2AFA JUMP JUMPDEST JUMPDEST SWAP1 PUSH1 0x0 MSTORE PUSH1 0x20 PUSH1 0x0 KECCAK256 ADD DUP1 SLOAD PUSH2 0x152B SWAP1 PUSH2 0x248E JUMP JUMPDEST DUP1 PUSH1 0x1F ADD PUSH1 0x20 DUP1 SWAP2 DIV MUL PUSH1 0x20 ADD PUSH1 0x40 MLOAD SWAP1 DUP2 ADD PUSH1 0x40 MSTORE DUP1 SWAP3 SWAP2 SWAP1 DUP2 DUP2 MSTORE PUSH1 0x20 ADD DUP3 DUP1 SLOAD PUSH2 0x1557 SWAP1 PUSH2 0x248E JUMP JUMPDEST DUP1 ISZERO PUSH2 0x15A4 JUMPI DUP1 PUSH1 0x1F LT PUSH2 0x1579 JUMPI PUSH2 0x100 DUP1 DUP4 SLOAD DIV MUL DUP4 MSTORE SWAP2 PUSH1 0x20 ADD SWAP2 PUSH2 0x15A4 JUMP JUMPDEST DUP3 ADD SWAP2 SWAP1 PUSH1 0x0 MSTORE PUSH1 0x20 PUSH1 0x0 KECCAK256 SWAP1 JUMPDEST DUP2 SLOAD DUP2 MSTORE SWAP1 PUSH1 0x1 ADD SWAP1 PUSH1 0x20 ADD DUP1 DUP4 GT PUSH2 0x1587 JUMPI DUP3 SWAP1 SUB PUSH1 0x1F AND DUP3 ADD SWAP2 JUMPDEST POP POP POP POP POP DUP2 MSTORE PUSH1 0x20 ADD DUP3 PUSH1 0x0 ADD MLOAD DUP2 MSTORE PUSH1 0x20 ADD DUP3 PUSH1 0x20 ADD MLOAD PUSH20 0xFFFFFFFFFFFFFFFFFFFFFFFFFFFFFFFFFFFFFFFF AND DUP2 MSTORE PUSH1 0x20 ADD DUP3 PUSH1 0x40 ADD MLOAD DUP2 MSTORE PUSH1 0x20 ADD DUP3 PUSH1 0x60 ADD MLOAD PUSH1 0x1 DUP2 GT ISZERO PUSH2 0x15F9 JUMPI PUSH2 0x15F8 PUSH2 0x1C15 JUMP JUMPDEST JUMPDEST DUP2 MSTORE PUSH1 0x20 ADD DUP3 PUSH1 0x80 ADD MLOAD DUP2 MSTORE PUSH1 0x20 ADD DUP3 PUSH1 0xA0 ADD MLOAD DUP2 MSTORE POP DUP4 DUP4 DUP2 MLOAD DUP2 LT PUSH2 0x1623 JUMPI PUSH2 0x1622 PUSH2 0x2AFA JUMP JUMPDEST JUMPDEST PUSH1 0x20 MUL PUSH1 0x20 ADD ADD DUP2 SWAP1 MSTORE POP POP DUP1 DUP1 PUSH2 0x163A SWAP1 PUSH2 0x2B29 JUMP JUMPDEST SWAP2 POP POP PUSH2 0x13E7 JUMP JUMPDEST POP DUP1 SWAP2 POP POP SWAP1 JUMP JUMPDEST PUSH1 0x2 DUP2 DUP2 SLOAD DUP2 LT PUSH2 0x165A JUMPI PUSH1 0x0 DUP1 REVERT JUMPDEST SWAP1 PUSH1 0x0 MSTORE PUSH1 0x20 PUSH1 0x0 KECCAK256 ADD PUSH1 0x0 SWAP2 POP SWAP1 POP DUP1 SLOAD PUSH2 0x1675 SWAP1 PUSH2 0x248E JUMP JUMPDEST DUP1 PUSH1 0x1F ADD PUSH1 0x20 DUP1 SWAP2 DIV MUL PUSH1 0x20 ADD PUSH1 0x40 MLOAD SWAP1 DUP2 ADD PUSH1 0x40 MSTORE DUP1 SWAP3 SWAP2 SWAP1 DUP2 DUP2 MSTORE PUSH1 0x20 ADD DUP3 DUP1 SLOAD PUSH2 0x16A1 SWAP1 PUSH2 0x248E JUMP JUMPDEST DUP1 ISZERO PUSH2 0x16EE JUMPI DUP1 PUSH1 0x1F LT PUSH2 0x16C3 JUMPI PUSH2 0x100 DUP1 DUP4 SLOAD DIV MUL DUP4 MSTORE SWAP2 PUSH1 0x20 ADD SWAP2 PUSH2 0x16EE JUMP JUMPDEST DUP3 ADD SWAP2 SWAP1 PUSH1 0x0 MSTORE PUSH1 0x20 PUSH1 0x0 KECCAK256 SWAP1 JUMPDEST DUP2 SLOAD DUP2 MSTORE SWAP1 PUSH1 0x1 ADD SWAP1 PUSH1 0x20 ADD DUP1 DUP4 GT PUSH2 0x16D1 JUMPI DUP3 SWAP1 SUB PUSH1 0x1F AND DUP3 ADD SWAP2 JUMPDEST POP POP POP POP POP DUP2 JUMP JUMPDEST PUSH1 0x0 PUSH1 0x1 DUP4 DUP4 PUSH1 0x40 MLOAD PUSH2 0x170A SWAP3 SWAP2 SWAP1 PUSH2 0x2346 JUMP JUMPDEST SWAP1 DUP2 MSTORE PUSH1 0x20 ADD PUSH1 0x40 MLOAD DUP1 SWAP2 SUB SWAP1 KECCAK256 PUSH1 0x3 ADD PUSH1 0x0 SWAP1 SLOAD SWAP1 PUSH2 0x100 EXP SWAP1 DIV PUSH1 0xFF AND SWAP1 POP SWAP3 SWAP2 POP POP JUMP JUMPDEST PUSH1 0x0 SLOAD DUP2 JUMP JUMPDEST PUSH1 0x0 DUP1 PUSH1 0x0 DUP1 PUSH1 0x0 DUP1 PUSH1 0x0 PUSH1 0x1 DUP10 DUP10 PUSH1 0x40 MLOAD PUSH2 0x1754 SWAP3 SWAP2 SWAP1 PUSH2 0x2346 JUMP JUMPDEST SWAP1 DUP2 MSTORE PUSH1 0x20 ADD PUSH1 0x40 MLOAD DUP1 SWAP2 SUB SWAP1 KECCAK256 PUSH1 0x40 MLOAD DUP1 PUSH1 0xC0 ADD PUSH1 0x40 MSTORE SWAP1 DUP2 PUSH1 0x0 DUP3 ADD SLOAD DUP2 MSTORE PUSH1 0x20 ADD PUSH1 0x1 DUP3 ADD PUSH1 0x0 SWAP1 SLOAD SWAP1 PUSH2 0x100 EXP SWAP1 DIV PUSH20 0xFFFFFFFFFFFFFFFFFFFFFFFFFFFFFFFFFFFFFFFF AND PUSH20 0xFFFFFFFFFFFFFFFFFFFFFFFFFFFFFFFFFFFFFFFF AND PUSH20 0xFFFFFFFFFFFFFFFFFFFFFFFFFFFFFFFFFFFFFFFF AND DUP2 MSTORE PUSH1 0x20 ADD PUSH1 0x2 DUP3 ADD SLOAD DUP2 MSTORE PUSH1 0x20 ADD PUSH1 0x3 DUP3 ADD PUSH1 0x0 SWAP1 SLOAD SWAP1 PUSH2 0x100 EXP SWAP1 DIV PUSH1 0xFF AND PUSH1 0x1 DUP2 GT ISZERO PUSH2 0x17FC JUMPI PUSH2 0x17FB PUSH2 0x1C15 JUMP JUMPDEST JUMPDEST PUSH1 0x1 DUP2 GT ISZERO PUSH2 0x180E JUMPI PUSH2 0x180D PUSH2 0x1C15 JUMP JUMPDEST JUMPDEST DUP2 MSTORE PUSH1 0x20 ADD PUSH1 0x4 DUP3 ADD SLOAD DUP2 MSTORE PUSH1 0x20 ADD PUSH1 0x5 DUP3 ADD SLOAD DUP2 MSTORE POP POP SWAP1 POP DUP1 PUSH1 0x0 ADD MLOAD DUP2 PUSH1 0x20 ADD MLOAD DUP3 PUSH1 0x40 ADD MLOAD DUP4 PUSH1 0x60 ADD MLOAD DUP5 PUSH1 0x80 ADD MLOAD DUP6 PUSH1 0xA0 ADD MLOAD SWAP7 POP SWAP7 POP SWAP7 POP SWAP7 POP SWAP7 POP SWAP7 POP POP SWAP3 SWAP6 POP SWAP3 SWAP6 POP SWAP3 SWAP6 JUMP JUMPDEST PUSH1 0x0 PUSH1 0x2 DUP1 SLOAD SWAP1 POP SWAP1 POP SWAP1 JUMP JUMPDEST POP DUP1 SLOAD PUSH2 0x1876 SWAP1 PUSH2 0x248E JUMP JUMPDEST PUSH1 0x0 DUP3 SSTORE DUP1 PUSH1 0x1F LT PUSH2 0x1888 JUMPI POP PUSH2 0x18A7 JUMP JUMPDEST PUSH1 0x1F ADD PUSH1 0x20 SWAP1 DIV SWAP1 PUSH1 0x0 MSTORE PUSH1 0x20 PUSH1 0x0 KECCAK256 SWAP1 DUP2 ADD SWAP1 PUSH2 0x18A6 SWAP2 SWAP1 PUSH2 0x190F JUMP JUMPDEST JUMPDEST POP JUMP JUMPDEST PUSH1 0x40 MLOAD DUP1 PUSH1 0xE0 ADD PUSH1 0x40 MSTORE DUP1 PUSH1 0x60 DUP2 MSTORE PUSH1 0x20 ADD PUSH1 0x0 DUP2 MSTORE PUSH1 0x20 ADD PUSH1 0x0 PUSH20 0xFFFFFFFFFFFFFFFFFFFFFFFFFFFFFFFFFFFFFFFF AND DUP2 MSTORE PUSH1 0x20 ADD PUSH1 0x0 DUP2 MSTORE PUSH1 0x20 ADD PUSH1 0x0 PUSH1 0x1 DUP2 GT ISZERO PUSH2 0x18FB JUMPI PUSH2 0x18FA PUSH2 0x1C15 JUMP JUMPDEST JUMPDEST DUP2 MSTORE PUSH1 0x20 ADD PUSH1 0x0 DUP2 MSTORE PUSH1 0x20 ADD PUSH1 0x0 DUP2 MSTORE POP SWAP1 JUMP JUMPDEST JUMPDEST DUP1 DUP3 GT ISZERO PUSH2 0x1928 JUMPI PUSH1 0x0 DUP2 PUSH1 0x0 SWAP1 SSTORE POP PUSH1 0x1 ADD PUSH2 0x1910 JUMP JUMPDEST POP SWAP1 JUMP JUMPDEST PUSH1 0x0 PUSH1 0x40 MLOAD SWAP1 POP SWAP1 JUMP JUMPDEST PUSH1 0x0 DUP1 REVERT JUMPDEST PUSH1 0x0 DUP1 REVERT JUMPDEST PUSH1 0x0 DUP1 REVERT JUMPDEST PUSH1 0x0 DUP1 REVERT JUMPDEST PUSH1 0x0 DUP1 REVERT JUMPDEST PUSH1 0x0 DUP1 DUP4 PUSH1 0x1F DUP5 ADD SLT PUSH2 0x1965 JUMPI PUSH2 0x1964 PUSH2 0x1940 JUMP JUMPDEST JUMPDEST DUP3 CALLDATALOAD SWAP1 POP PUSH8 0xFFFFFFFFFFFFFFFF DUP2 GT ISZERO PUSH2 0x1982 JUMPI PUSH2 0x1981 PUSH2 0x1945 JUMP JUMPDEST JUMPDEST PUSH1 0x20 DUP4 ADD SWAP2 POP DUP4 PUSH1 0x1 DUP3 MUL DUP4 ADD GT ISZERO PUSH2 0x199E JUMPI PUSH2 0x199D PUSH2 0x194A JUMP JUMPDEST JUMPDEST SWAP3 POP SWAP3 SWAP1 POP JUMP JUMPDEST PUSH1 0x0 DUP2 SWAP1 POP SWAP2 SWAP1 POP JUMP JUMPDEST PUSH2 0x19B8 DUP2 PUSH2 0x19A5 JUMP JUMPDEST DUP2 EQ PUSH2 0x19C3 JUMPI PUSH1 0x0 DUP1 REVERT JUMPDEST POP JUMP JUMPDEST PUSH1 0x0 DUP2 CALLDATALOAD SWAP1 POP PUSH2 0x19D5 DUP2 PUSH2 0x19AF JUMP JUMPDEST SWAP3 SWAP2 POP POP JUMP JUMPDEST PUSH1 0x0 DUP1 PUSH1 0x0 PUSH1 0x40 DUP5 DUP7 SUB SLT ISZERO PUSH2 0x19F4 JUMPI PUSH2 0x19F3 PUSH2 0x1936 JUMP JUMPDEST JUMPDEST PUSH1 0x0 DUP5 ADD CALLDATALOAD PUSH8 0xFFFFFFFFFFFFFFFF DUP2 GT ISZERO PUSH2 0x1A12 JUMPI PUSH2 0x1A11 PUSH2 0x193B JUMP JUMPDEST JUMPDEST PUSH2 0x1A1E DUP7 DUP3 DUP8 ADD PUSH2 0x194F JUMP JUMPDEST SWAP4 POP SWAP4 POP POP PUSH1 0x20 PUSH2 0x1A31 DUP7 DUP3 DUP8 ADD PUSH2 0x19C6 JUMP JUMPDEST SWAP2 POP POP SWAP3 POP SWAP3 POP SWAP3 JUMP JUMPDEST PUSH1 0x0 DUP1 REVERT JUMPDEST PUSH1 0x0 PUSH1 0x1F NOT PUSH1 0x1F DUP4 ADD AND SWAP1 POP SWAP2 SWAP1 POP JUMP JUMPDEST PUSH32 0x4E487B7100000000000000000000000000000000000000000000000000000000 PUSH1 0x0 MSTORE PUSH1 0x41 PUSH1 0x4 MSTORE PUSH1 0x24 PUSH1 0x0 REVERT JUMPDEST PUSH2 0x1A89 DUP3 PUSH2 0x1A40 JUMP JUMPDEST DUP2 ADD DUP2 DUP2 LT PUSH8 0xFFFFFFFFFFFFFFFF DUP3 GT OR ISZERO PUSH2 0x1AA8 JUMPI PUSH2 0x1AA7 PUSH2 0x1A51 JUMP JUMPDEST JUMPDEST DUP1 PUSH1 0x40 MSTORE POP POP POP JUMP JUMPDEST PUSH1 0x0 PUSH2 0x1ABB PUSH2 0x192C JUMP JUMPDEST SWAP1 POP PUSH2 0x1AC7 DUP3 DUP3 PUSH2 0x1A80 JUMP JUMPDEST SWAP2 SWAP1 POP JUMP JUMPDEST PUSH1 0x0 PUSH8 0xFFFFFFFFFFFFFFFF DUP3 GT ISZERO PUSH2 0x1AE7 JUMPI PUSH2 0x1AE6 PUSH2 0x1A51 JUMP JUMPDEST JUMPDEST PUSH2 0x1AF0 DUP3 PUSH2 0x1A40 JUMP JUMPDEST SWAP1 POP PUSH1 0x20 DUP2 ADD SWAP1 POP SWAP2 SWAP1 POP JUMP JUMPDEST DUP3 DUP2 DUP4 CALLDATACOPY PUSH1 0x0 DUP4 DUP4 ADD MSTORE POP POP POP JUMP JUMPDEST PUSH1 0x0 PUSH2 0x1B1F PUSH2 0x1B1A DUP5 PUSH2 0x1ACC JUMP JUMPDEST PUSH2 0x1AB1 JUMP JUMPDEST SWAP1 POP DUP3 DUP2 MSTORE PUSH1 0x20 DUP2 ADD DUP5 DUP5 DUP5 ADD GT ISZERO PUSH2 0x1B3B JUMPI PUSH2 0x1B3A PUSH2 0x1A3B JUMP JUMPDEST JUMPDEST PUSH2 0x1B46 DUP5 DUP3 DUP6 PUSH2 0x1AFD JUMP JUMPDEST POP SWAP4 SWAP3 POP POP POP JUMP JUMPDEST PUSH1 0x0 DUP3 PUSH1 0x1F DUP4 ADD SLT PUSH2 0x1B63 JUMPI PUSH2 0x1B62 PUSH2 0x1940 JUMP JUMPDEST JUMPDEST DUP2 CALLDATALOAD PUSH2 0x1B73 DUP5 DUP3 PUSH1 0x20 DUP7 ADD PUSH2 0x1B0C JUMP JUMPDEST SWAP2 POP POP SWAP3 SWAP2 POP POP JUMP JUMPDEST PUSH1 0x0 PUSH1 0x20 DUP3 DUP5 SUB SLT ISZERO PUSH2 0x1B92 JUMPI PUSH2 0x1B91 PUSH2 0x1936 JUMP JUMPDEST JUMPDEST PUSH1 0x0 DUP3 ADD CALLDATALOAD PUSH8 0xFFFFFFFFFFFFFFFF DUP2 GT ISZERO PUSH2 0x1BB0 JUMPI PUSH2 0x1BAF PUSH2 0x193B JUMP JUMPDEST JUMPDEST PUSH2 0x1BBC DUP5 DUP3 DUP6 ADD PUSH2 0x1B4E JUMP JUMPDEST SWAP2 POP POP SWAP3 SWAP2 POP POP JUMP JUMPDEST PUSH2 0x1BCE DUP2 PUSH2 0x19A5 JUMP JUMPDEST DUP3 MSTORE POP POP JUMP JUMPDEST PUSH1 0x0 PUSH20 0xFFFFFFFFFFFFFFFFFFFFFFFFFFFFFFFFFFFFFFFF DUP3 AND SWAP1 POP SWAP2 SWAP1 POP JUMP JUMPDEST PUSH1 0x0 PUSH2 0x1BFF DUP3 PUSH2 0x1BD4 JUMP JUMPDEST SWAP1 POP SWAP2 SWAP1 POP JUMP JUMPDEST PUSH2 0x1C0F DUP2 PUSH2 0x1BF4 JUMP JUMPDEST DUP3 MSTORE POP POP JUMP JUMPDEST PUSH32 0x4E487B7100000000000000000000000000000000000000000000000000000000 PUSH1 0x0 MSTORE PUSH1 0x21 PUSH1 0x4 MSTORE PUSH1 0x24 PUSH1 0x0 REVERT JUMPDEST PUSH1 0x2 DUP2 LT PUSH2 0x1C55 JUMPI PUSH2 0x1C54 PUSH2 0x1C15 JUMP JUMPDEST JUMPDEST POP JUMP JUMPDEST PUSH1 0x0 DUP2 SWAP1 POP PUSH2 0x1C66 DUP3 PUSH2 0x1C44 JUMP JUMPDEST SWAP2 SWAP1 POP JUMP JUMPDEST PUSH1 0x0 PUSH2 0x1C76 DUP3 PUSH2 0x1C58 JUMP JUMPDEST SWAP1 POP SWAP2 SWAP1 POP JUMP JUMPDEST PUSH2 0x1C86 DUP2 PUSH2 0x1C6B JUMP JUMPDEST DUP3 MSTORE POP POP JUMP JUMPDEST PUSH1 0x0 PUSH1 0xC0 DUP3 ADD SWAP1 POP PUSH2 0x1CA1 PUSH1 0x0 DUP4 ADD DUP10 PUSH2 0x1BC5 JUMP JUMPDEST PUSH2 0x1CAE PUSH1 0x20 DUP4 ADD DUP9 PUSH2 0x1C06 JUMP JUMPDEST PUSH2 0x1CBB PUSH1 0x40 DUP4 ADD DUP8 PUSH2 0x1BC5 JUMP JUMPDEST PUSH2 0x1CC8 PUSH1 0x60 DUP4 ADD DUP7 PUSH2 0x1C7D JUMP JUMPDEST PUSH2 0x1CD5 PUSH1 0x80 DUP4 ADD DUP6 PUSH2 0x1BC5 JUMP JUMPDEST PUSH2 0x1CE2 PUSH1 0xA0 DUP4 ADD DUP5 PUSH2 0x1BC5 JUMP JUMPDEST SWAP8 SWAP7 POP POP POP POP POP POP POP JUMP JUMPDEST PUSH1 0x0 DUP1 PUSH1 0x20 DUP4 DUP6 SUB SLT ISZERO PUSH2 0x1D04 JUMPI PUSH2 0x1D03 PUSH2 0x1936 JUMP JUMPDEST JUMPDEST PUSH1 0x0 DUP4 ADD CALLDATALOAD PUSH8 0xFFFFFFFFFFFFFFFF DUP2 GT ISZERO PUSH2 0x1D22 JUMPI PUSH2 0x1D21 PUSH2 0x193B JUMP JUMPDEST JUMPDEST PUSH2 0x1D2E DUP6 DUP3 DUP7 ADD PUSH2 0x194F JUMP JUMPDEST SWAP3 POP SWAP3 POP POP SWAP3 POP SWAP3 SWAP1 POP JUMP JUMPDEST PUSH1 0x0 PUSH1 0x20 DUP3 ADD SWAP1 POP PUSH2 0x1D4F PUSH1 0x0 DUP4 ADD DUP5 PUSH2 0x1BC5 JUMP JUMPDEST SWAP3 SWAP2 POP POP JUMP JUMPDEST PUSH1 0x0 PUSH1 0x20 DUP3 ADD SWAP1 POP PUSH2 0x1D6A PUSH1 0x0 DUP4 ADD DUP5 PUSH2 0x1C06 JUMP JUMPDEST SWAP3 SWAP2 POP POP JUMP JUMPDEST PUSH2 0x1D79 DUP2 PUSH2 0x1BF4 JUMP JUMPDEST DUP2 EQ PUSH2 0x1D84 JUMPI PUSH1 0x0 DUP1 REVERT JUMPDEST POP JUMP JUMPDEST PUSH1 0x0 DUP2 CALLDATALOAD SWAP1 POP PUSH2 0x1D96 DUP2 PUSH2 0x1D70 JUMP JUMPDEST SWAP3 SWAP2 POP POP JUMP JUMPDEST PUSH1 0x0 DUP1 PUSH1 0x0 PUSH1 0x40 DUP5 DUP7 SUB SLT ISZERO PUSH2 0x1DB5 JUMPI PUSH2 0x1DB4 PUSH2 0x1936 JUMP JUMPDEST JUMPDEST PUSH1 0x0 DUP5 ADD CALLDATALOAD PUSH8 0xFFFFFFFFFFFFFFFF DUP2 GT ISZERO PUSH2 0x1DD3 JUMPI PUSH2 0x1DD2 PUSH2 0x193B JUMP JUMPDEST JUMPDEST PUSH2 0x1DDF DUP7 DUP3 DUP8 ADD PUSH2 0x194F JUMP JUMPDEST SWAP4 POP SWAP4 POP POP PUSH1 0x20 PUSH2 0x1DF2 DUP7 DUP3 DUP8 ADD PUSH2 0x1D87 JUMP JUMPDEST SWAP2 POP POP SWAP3 POP SWAP3 POP SWAP3 JUMP JUMPDEST PUSH1 0x0 DUP2 MLOAD SWAP1 POP SWAP2 SWAP1 POP JUMP JUMPDEST PUSH1 0x0 DUP3 DUP3 MSTORE PUSH1 0x20 DUP3 ADD SWAP1 POP SWAP3 SWAP2 POP POP JUMP JUMPDEST PUSH1 0x0 DUP2 SWAP1 POP PUSH1 0x20 DUP3 ADD SWAP1 POP SWAP2 SWAP1 POP JUMP JUMPDEST PUSH1 0x0 DUP2 MLOAD SWAP1 POP SWAP2 SWAP1 POP JUMP JUMPDEST PUSH1 0x0 DUP3 DUP3 MSTORE PUSH1 0x20 DUP3 ADD SWAP1 POP SWAP3 SWAP2 POP POP JUMP JUMPDEST PUSH1 0x0 JUMPDEST DUP4 DUP2 LT ISZERO PUSH2 0x1E62 JUMPI DUP1 DUP3 ADD MLOAD DUP2 DUP5 ADD MSTORE PUSH1 0x20 DUP2 ADD SWAP1 POP PUSH2 0x1E47 JUMP JUMPDEST PUSH1 0x0 DUP5 DUP5 ADD MSTORE POP POP POP POP JUMP JUMPDEST PUSH1 0x0 PUSH2 0x1E79 DUP3 PUSH2 0x1E28 JUMP JUMPDEST PUSH2 0x1E83 DUP2 DUP6 PUSH2 0x1E33 JUMP JUMPDEST SWAP4 POP PUSH2 0x1E93 DUP2 DUP6 PUSH1 0x20 DUP7 ADD PUSH2 0x1E44 JUMP JUMPDEST PUSH2 0x1E9C DUP2 PUSH2 0x1A40 JUMP JUMPDEST DUP5 ADD SWAP2 POP POP SWAP3 SWAP2 POP POP JUMP JUMPDEST PUSH1 0x0 PUSH2 0x1EB3 DUP4 DUP4 PUSH2 0x1E6E JUMP JUMPDEST SWAP1 POP SWAP3 SWAP2 POP POP JUMP JUMPDEST PUSH1 0x0 PUSH1 0x20 DUP3 ADD SWAP1 POP SWAP2 SWAP1 POP JUMP JUMPDEST PUSH1 0x0 PUSH2 0x1ED3 DUP3 PUSH2 0x1DFC JUMP JUMPDEST PUSH2 0x1EDD DUP2 DUP6 PUSH2 0x1E07 JUMP JUMPDEST SWAP4 POP DUP4 PUSH1 0x20 DUP3 MUL DUP6 ADD PUSH2 0x1EEF DUP6 PUSH2 0x1E18 JUMP JUMPDEST DUP1 PUSH1 0x0 JUMPDEST DUP6 DUP2 LT ISZERO PUSH2 0x1F2B JUMPI DUP5 DUP5 SUB DUP10 MSTORE DUP2 MLOAD PUSH2 0x1F0C DUP6 DUP3 PUSH2 0x1EA7 JUMP JUMPDEST SWAP5 POP PUSH2 0x1F17 DUP4 PUSH2 0x1EBB JUMP JUMPDEST SWAP3 POP PUSH1 0x20 DUP11 ADD SWAP10 POP POP PUSH1 0x1 DUP2 ADD SWAP1 POP PUSH2 0x1EF3 JUMP JUMPDEST POP DUP3 SWAP8 POP DUP8 SWAP6 POP POP POP POP POP POP SWAP3 SWAP2 POP POP JUMP JUMPDEST PUSH1 0x0 DUP2 MLOAD SWAP1 POP SWAP2 SWAP1 POP JUMP JUMPDEST PUSH1 0x0 DUP3 DUP3 MSTORE PUSH1 0x20 DUP3 ADD SWAP1 POP SWAP3 SWAP2 POP POP JUMP JUMPDEST PUSH1 0x0 DUP2 SWAP1 POP PUSH1 0x20 DUP3 ADD SWAP1 POP SWAP2 SWAP1 POP JUMP JUMPDEST PUSH2 0x1F72 DUP2 PUSH2 0x19A5 JUMP JUMPDEST DUP3 MSTORE POP POP JUMP JUMPDEST PUSH1 0x0 PUSH2 0x1F84 DUP4 DUP4 PUSH2 0x1F69 JUMP JUMPDEST PUSH1 0x20 DUP4 ADD SWAP1 POP SWAP3 SWAP2 POP POP JUMP JUMPDEST PUSH1 0x0 PUSH1 0x20 DUP3 ADD SWAP1 POP SWAP2 SWAP1 POP JUMP JUMPDEST PUSH1 0x0 PUSH2 0x1FA8 DUP3 PUSH2 0x1F3D JUMP JUMPDEST PUSH2 0x1FB2 DUP2 DUP6 PUSH2 0x1F48 JUMP JUMPDEST SWAP4 POP PUSH2 0x1FBD DUP4 PUSH2 0x1F59 JUMP JUMPDEST DUP1 PUSH1 0x0 JUMPDEST DUP4 DUP2 LT ISZERO PUSH2 0x1FEE JUMPI DUP2 MLOAD PUSH2 0x1FD5 DUP9 DUP3 PUSH2 0x1F78 JUMP JUMPDEST SWAP8 POP PUSH2 0x1FE0 DUP4 PUSH2 0x1F90 JUMP JUMPDEST SWAP3 POP POP PUSH1 0x1 DUP2 ADD SWAP1 POP PUSH2 0x1FC1 JUMP JUMPDEST POP DUP6 SWAP4 POP POP POP POP SWAP3 SWAP2 POP POP JUMP JUMPDEST PUSH1 0x0 PUSH1 0x40 DUP3 ADD SWAP1 POP DUP2 DUP2 SUB PUSH1 0x0 DUP4 ADD MSTORE PUSH2 0x2015 DUP2 DUP6 PUSH2 0x1EC8 JUMP JUMPDEST SWAP1 POP DUP2 DUP2 SUB PUSH1 0x20 DUP4 ADD MSTORE PUSH2 0x2029 DUP2 DUP5 PUSH2 0x1F9D JUMP JUMPDEST SWAP1 POP SWAP4 SWAP3 POP POP POP JUMP JUMPDEST PUSH1 0x0 DUP2 MLOAD SWAP1 POP SWAP2 SWAP1 POP JUMP JUMPDEST PUSH1 0x0 DUP3 DUP3 MSTORE PUSH1 0x20 DUP3 ADD SWAP1 POP SWAP3 SWAP2 POP POP JUMP JUMPDEST PUSH1 0x0 DUP2 SWAP1 POP PUSH1 0x20 DUP3 ADD SWAP1 POP SWAP2 SWAP1 POP JUMP JUMPDEST PUSH2 0x2067 DUP2 PUSH2 0x1BF4 JUMP JUMPDEST DUP3 MSTORE POP POP JUMP JUMPDEST PUSH2 0x2076 DUP2 PUSH2 0x1C6B JUMP JUMPDEST DUP3 MSTORE POP POP JUMP JUMPDEST PUSH1 0x0 PUSH1 0xE0 DUP4 ADD PUSH1 0x0 DUP4 ADD MLOAD DUP5 DUP3 SUB PUSH1 0x0 DUP7 ADD MSTORE PUSH2 0x2099 DUP3 DUP3 PUSH2 0x1E6E JUMP JUMPDEST SWAP2 POP POP PUSH1 0x20 DUP4 ADD MLOAD PUSH2 0x20AE PUSH1 0x20 DUP7 ADD DUP3 PUSH2 0x1F69 JUMP JUMPDEST POP PUSH1 0x40 DUP4 ADD MLOAD PUSH2 0x20C1 PUSH1 0x40 DUP7 ADD DUP3 PUSH2 0x205E JUMP JUMPDEST POP PUSH1 0x60 DUP4 ADD MLOAD PUSH2 0x20D4 PUSH1 0x60 DUP7 ADD DUP3 PUSH2 0x1F69 JUMP JUMPDEST POP PUSH1 0x80 DUP4 ADD MLOAD PUSH2 0x20E7 PUSH1 0x80 DUP7 ADD DUP3 PUSH2 0x206D JUMP JUMPDEST POP PUSH1 0xA0 DUP4 ADD MLOAD PUSH2 0x20FA PUSH1 0xA0 DUP7 ADD DUP3 PUSH2 0x1F69 JUMP JUMPDEST POP PUSH1 0xC0 DUP4 ADD MLOAD PUSH2 0x210D PUSH1 0xC0 DUP7 ADD DUP3 PUSH2 0x1F69 JUMP JUMPDEST POP DUP1 SWAP2 POP POP SWAP3 SWAP2 POP POP JUMP JUMPDEST PUSH1 0x0 PUSH2 0x2124 DUP4 DUP4 PUSH2 0x207C JUMP JUMPDEST SWAP1 POP SWAP3 SWAP2 POP POP JUMP JUMPDEST PUSH1 0x0 PUSH1 0x20 DUP3 ADD SWAP1 POP SWAP2 SWAP1 POP JUMP JUMPDEST PUSH1 0x0 PUSH2 0x2144 DUP3 PUSH2 0x2032 JUMP JUMPDEST PUSH2 0x214E DUP2 DUP6 PUSH2 0x203D JUMP JUMPDEST SWAP4 POP DUP4 PUSH1 0x20 DUP3 MUL DUP6 ADD PUSH2 0x2160 DUP6 PUSH2 0x204E JUMP JUMPDEST DUP1 PUSH1 0x0 JUMPDEST DUP6 DUP2 LT ISZERO PUSH2 0x219C JUMPI DUP5 DUP5 SUB DUP10 MSTORE DUP2 MLOAD PUSH2 0x217D DUP6 DUP3 PUSH2 0x2118 JUMP JUMPDEST SWAP5 POP PUSH2 0x2188 DUP4 PUSH2 0x212C JUMP JUMPDEST SWAP3 POP PUSH1 0x20 DUP11 ADD SWAP10 POP POP PUSH1 0x1 DUP2 ADD SWAP1 POP PUSH2 0x2164 JUMP JUMPDEST POP DUP3 SWAP8 POP DUP8 SWAP6 POP POP POP POP POP POP SWAP3 SWAP2 POP POP JUMP JUMPDEST PUSH1 0x0 PUSH1 0x20 DUP3 ADD SWAP1 POP DUP2 DUP2 SUB PUSH1 0x0 DUP4 ADD MSTORE PUSH2 0x21C8 DUP2 DUP5 PUSH2 0x2139 JUMP JUMPDEST SWAP1 POP SWAP3 SWAP2 POP POP JUMP JUMPDEST PUSH1 0x0 PUSH1 0x20 DUP3 DUP5 SUB SLT ISZERO PUSH2 0x21E6 JUMPI PUSH2 0x21E5 PUSH2 0x1936 JUMP JUMPDEST JUMPDEST PUSH1 0x0 PUSH2 0x21F4 DUP5 DUP3 DUP6 ADD PUSH2 0x19C6 JUMP JUMPDEST SWAP2 POP POP SWAP3 SWAP2 POP POP JUMP JUMPDEST PUSH1 0x0 DUP3 DUP3 MSTORE PUSH1 0x20 DUP3 ADD SWAP1 POP SWAP3 SWAP2 POP POP JUMP JUMPDEST PUSH1 0x0 PUSH2 0x2219 DUP3 PUSH2 0x1E28 JUMP JUMPDEST PUSH2 0x2223 DUP2 DUP6 PUSH2 0x21FD JUMP JUMPDEST SWAP4 POP PUSH2 0x2233 DUP2 DUP6 PUSH1 0x20 DUP7 ADD PUSH2 0x1E44 JUMP JUMPDEST PUSH2 0x223C DUP2 PUSH2 0x1A40 JUMP JUMPDEST DUP5 ADD SWAP2 POP POP SWAP3 SWAP2 POP POP JUMP JUMPDEST PUSH1 0x0 PUSH1 0x20 DUP3 ADD SWAP1 POP DUP2 DUP2 SUB PUSH1 0x0 DUP4 ADD MSTORE PUSH2 0x2261 DUP2 DUP5 PUSH2 0x220E JUMP JUMPDEST SWAP1 POP SWAP3 SWAP2 POP POP JUMP JUMPDEST PUSH1 0x0 PUSH1 0x20 DUP3 ADD SWAP1 POP PUSH2 0x227E PUSH1 0x0 DUP4 ADD DUP5 PUSH2 0x1C7D JUMP JUMPDEST SWAP3 SWAP2 POP POP JUMP JUMPDEST PUSH32 0x4F6E6C7920746865206D616E616765722063616E20706572666F726D20746869 PUSH1 0x0 DUP3 ADD MSTORE PUSH32 0x7320616374696F6E000000000000000000000000000000000000000000000000 PUSH1 0x20 DUP3 ADD MSTORE POP JUMP JUMPDEST PUSH1 0x0 PUSH2 0x22E0 PUSH1 0x28 DUP4 PUSH2 0x21FD JUMP JUMPDEST SWAP2 POP PUSH2 0x22EB DUP3 PUSH2 0x2284 JUMP JUMPDEST PUSH1 0x40 DUP3 ADD SWAP1 POP SWAP2 SWAP1 POP JUMP JUMPDEST PUSH1 0x0 PUSH1 0x20 DUP3 ADD SWAP1 POP DUP2 DUP2 SUB PUSH1 0x0 DUP4 ADD MSTORE PUSH2 0x230F DUP2 PUSH2 0x22D3 JUMP JUMPDEST SWAP1 POP SWAP2 SWAP1 POP JUMP JUMPDEST PUSH1 0x0 DUP2 SWAP1 POP SWAP3 SWAP2 POP POP JUMP JUMPDEST PUSH1 0x0 PUSH2 0x232D DUP4 DUP6 PUSH2 0x2316 JUMP JUMPDEST SWAP4 POP PUSH2 0x233A DUP4 DUP6 DUP5 PUSH2 0x1AFD JUMP JUMPDEST DUP3 DUP5 ADD SWAP1 POP SWAP4 SWAP3 POP POP POP JUMP JUMPDEST PUSH1 0x0 PUSH2 0x2353 DUP3 DUP5 DUP7 PUSH2 0x2321 JUMP JUMPDEST SWAP2 POP DUP2 SWAP1 POP SWAP4 SWAP3 POP POP POP JUMP JUMPDEST PUSH32 0x536F66747761726520776974682074686973206E616D6520616C726561647920 PUSH1 0x0 DUP3 ADD MSTORE PUSH32 0x6578697374730000000000000000000000000000000000000000000000000000 PUSH1 0x20 DUP3 ADD MSTORE POP JUMP JUMPDEST PUSH1 0x0 PUSH2 0x23BB PUSH1 0x26 DUP4 PUSH2 0x21FD JUMP JUMPDEST SWAP2 POP PUSH2 0x23C6 DUP3 PUSH2 0x235F JUMP JUMPDEST PUSH1 0x40 DUP3 ADD SWAP1 POP SWAP2 SWAP1 POP JUMP JUMPDEST PUSH1 0x0 PUSH1 0x20 DUP3 ADD SWAP1 POP DUP2 DUP2 SUB PUSH1 0x0 DUP4 ADD MSTORE PUSH2 0x23EA DUP2 PUSH2 0x23AE JUMP JUMPDEST SWAP1 POP SWAP2 SWAP1 POP JUMP JUMPDEST PUSH32 0x4E487B7100000000000000000000000000000000000000000000000000000000 PUSH1 0x0 MSTORE PUSH1 0x11 PUSH1 0x4 MSTORE PUSH1 0x24 PUSH1 0x0 REVERT JUMPDEST PUSH1 0x0 PUSH2 0x242B DUP3 PUSH2 0x19A5 JUMP JUMPDEST SWAP2 POP PUSH2 0x2436 DUP4 PUSH2 0x19A5 JUMP JUMPDEST SWAP3 POP DUP3 DUP3 ADD SWAP1 POP DUP1 DUP3 GT ISZERO PUSH2 0x244E JUMPI PUSH2 0x244D PUSH2 0x23F1 JUMP JUMPDEST JUMPDEST SWAP3 SWAP2 POP POP JUMP JUMPDEST PUSH1 0x0 DUP3 SWAP1 POP SWAP3 SWAP2 POP POP JUMP JUMPDEST PUSH32 0x4E487B7100000000000000000000000000000000000000000000000000000000 PUSH1 0x0 MSTORE PUSH1 0x22 PUSH1 0x4 MSTORE PUSH1 0x24 PUSH1 0x0 REVERT JUMPDEST PUSH1 0x0 PUSH1 0x2 DUP3 DIV SWAP1 POP PUSH1 0x1 DUP3 AND DUP1 PUSH2 0x24A6 JUMPI PUSH1 0x7F DUP3 AND SWAP2 POP JUMPDEST PUSH1 0x20 DUP3 LT DUP2 SUB PUSH2 0x24B9 JUMPI PUSH2 0x24B8 PUSH2 0x245F JUMP JUMPDEST JUMPDEST POP SWAP2 SWAP1 POP JUMP JUMPDEST PUSH1 0x0 DUP2 SWAP1 POP DUP2 PUSH1 0x0 MSTORE PUSH1 0x20 PUSH1 0x0 KECCAK256 SWAP1 POP SWAP2 SWAP1 POP JUMP JUMPDEST PUSH1 0x0 PUSH1 0x20 PUSH1 0x1F DUP4 ADD DIV SWAP1 POP SWAP2 SWAP1 POP JUMP JUMPDEST PUSH1 0x0 DUP3 DUP3 SHL SWAP1 POP SWAP3 SWAP2 POP POP JUMP JUMPDEST PUSH1 0x0 PUSH1 0x8 DUP4 MUL PUSH2 0x2521 PUSH32 0xFFFFFFFFFFFFFFFFFFFFFFFFFFFFFFFFFFFFFFFFFFFFFFFFFFFFFFFFFFFFFFFF DUP3 PUSH2 0x24E4 JUMP JUMPDEST PUSH2 0x252B DUP7 DUP4 PUSH2 0x24E4 JUMP JUMPDEST SWAP6 POP DUP1 NOT DUP5 AND SWAP4 POP DUP1 DUP7 AND DUP5 OR SWAP3 POP POP POP SWAP4 SWAP3 POP POP POP JUMP JUMPDEST PUSH1 0x0 DUP2 SWAP1 POP SWAP2 SWAP1 POP JUMP JUMPDEST PUSH1 0x0 PUSH2 0x2568 PUSH2 0x2563 PUSH2 0x255E DUP5 PUSH2 0x19A5 JUMP JUMPDEST PUSH2 0x2543 JUMP JUMPDEST PUSH2 0x19A5 JUMP JUMPDEST SWAP1 POP SWAP2 SWAP1 POP JUMP JUMPDEST PUSH1 0x0 DUP2 SWAP1 POP SWAP2 SWAP1 POP JUMP JUMPDEST PUSH2 0x2582 DUP4 PUSH2 0x254D JUMP JUMPDEST PUSH2 0x2596 PUSH2 0x258E DUP3 PUSH2 0x256F JUMP JUMPDEST DUP5 DUP5 SLOAD PUSH2 0x24F1 JUMP JUMPDEST DUP3 SSTORE POP POP POP POP JUMP JUMPDEST PUSH1 0x0 SWAP1 JUMP JUMPDEST PUSH2 0x25AB PUSH2 0x259E JUMP JUMPDEST PUSH2 0x25B6 DUP2 DUP5 DUP5 PUSH2 0x2579 JUMP JUMPDEST POP POP POP JUMP JUMPDEST JUMPDEST DUP2 DUP2 LT ISZERO PUSH2 0x25DA JUMPI PUSH2 0x25CF PUSH1 0x0 DUP3 PUSH2 0x25A3 JUMP JUMPDEST PUSH1 0x1 DUP2 ADD SWAP1 POP PUSH2 0x25BC JUMP JUMPDEST POP POP JUMP JUMPDEST PUSH1 0x1F DUP3 GT ISZERO PUSH2 0x261F JUMPI PUSH2 0x25F0 DUP2 PUSH2 0x24BF JUMP JUMPDEST PUSH2 0x25F9 DUP5 PUSH2 0x24D4 JUMP JUMPDEST DUP2 ADD PUSH1 0x20 DUP6 LT ISZERO PUSH2 0x2608 JUMPI DUP2 SWAP1 POP JUMPDEST PUSH2 0x261C PUSH2 0x2614 DUP6 PUSH2 0x24D4 JUMP JUMPDEST DUP4 ADD DUP3 PUSH2 0x25BB JUMP JUMPDEST POP POP JUMPDEST POP POP POP JUMP JUMPDEST PUSH1 0x0 DUP3 DUP3 SHR SWAP1 POP SWAP3 SWAP2 POP POP JUMP JUMPDEST PUSH1 0x0 PUSH2 0x2642 PUSH1 0x0 NOT DUP5 PUSH1 0x8 MUL PUSH2 0x2624 JUMP JUMPDEST NOT DUP1 DUP4 AND SWAP2 POP POP SWAP3 SWAP2 POP POP JUMP JUMPDEST PUSH1 0x0 PUSH2 0x265B DUP4 DUP4 PUSH2 0x2631 JUMP JUMPDEST SWAP2 POP DUP3 PUSH1 0x2 MUL DUP3 OR SWAP1 POP SWAP3 SWAP2 POP POP JUMP JUMPDEST PUSH2 0x2675 DUP4 DUP4 PUSH2 0x2454 JUMP JUMPDEST PUSH8 0xFFFFFFFFFFFFFFFF DUP2 GT ISZERO PUSH2 0x268E JUMPI PUSH2 0x268D PUSH2 0x1A51 JUMP JUMPDEST JUMPDEST PUSH2 0x2698 DUP3 SLOAD PUSH2 0x248E JUMP JUMPDEST PUSH2 0x26A3 DUP3 DUP3 DUP6 PUSH2 0x25DE JUMP JUMPDEST PUSH1 0x0 PUSH1 0x1F DUP4 GT PUSH1 0x1 DUP2 EQ PUSH2 0x26D2 JUMPI PUSH1 0x0 DUP5 ISZERO PUSH2 0x26C0 JUMPI DUP3 DUP8 ADD CALLDATALOAD SWAP1 POP JUMPDEST PUSH2 0x26CA DUP6 DUP3 PUSH2 0x264F JUMP JUMPDEST DUP7 SSTORE POP PUSH2 0x2732 JUMP JUMPDEST PUSH1 0x1F NOT DUP5 AND PUSH2 0x26E0 DUP7 PUSH2 0x24BF JUMP JUMPDEST PUSH1 0x0 JUMPDEST DUP3 DUP2 LT ISZERO PUSH2 0x2708 JUMPI DUP5 DUP10 ADD CALLDATALOAD DUP3 SSTORE PUSH1 0x1 DUP3 ADD SWAP2 POP PUSH1 0x20 DUP6 ADD SWAP5 POP PUSH1 0x20 DUP2 ADD SWAP1 POP PUSH2 0x26E3 JUMP JUMPDEST DUP7 DUP4 LT ISZERO PUSH2 0x2725 JUMPI DUP5 DUP10 ADD CALLDATALOAD PUSH2 0x2721 PUSH1 0x1F DUP10 AND DUP3 PUSH2 0x2631 JUMP JUMPDEST DUP4 SSTORE POP JUMPDEST PUSH1 0x1 PUSH1 0x2 DUP9 MUL ADD DUP9 SSTORE POP POP POP JUMPDEST POP POP POP POP POP POP POP JUMP JUMPDEST PUSH1 0x0 PUSH2 0x2747 DUP4 DUP6 PUSH2 0x21FD JUMP JUMPDEST SWAP4 POP PUSH2 0x2754 DUP4 DUP6 DUP5 PUSH2 0x1AFD JUMP JUMPDEST PUSH2 0x275D DUP4 PUSH2 0x1A40 JUMP JUMPDEST DUP5 ADD SWAP1 POP SWAP4 SWAP3 POP POP POP JUMP JUMPDEST PUSH1 0x0 PUSH1 0x80 DUP3 ADD SWAP1 POP DUP2 DUP2 SUB PUSH1 0x0 DUP4 ADD MSTORE PUSH2 0x2783 DUP2 DUP8 DUP10 PUSH2 0x273B JUMP JUMPDEST SWAP1 POP PUSH2 0x2792 PUSH1 0x20 DUP4 ADD DUP7 PUSH2 0x1BC5 JUMP JUMPDEST PUSH2 0x279F PUSH1 0x40 DUP4 ADD DUP6 PUSH2 0x1BC5 JUMP JUMPDEST PUSH2 0x27AC PUSH1 0x60 DUP4 ADD DUP5 PUSH2 0x1BC5 JUMP JUMPDEST SWAP7 SWAP6 POP POP POP POP POP POP JUMP JUMPDEST PUSH1 0x0 PUSH2 0x27C1 DUP3 PUSH2 0x1E28 JUMP JUMPDEST PUSH2 0x27CB DUP2 DUP6 PUSH2 0x2316 JUMP JUMPDEST SWAP4 POP PUSH2 0x27DB DUP2 DUP6 PUSH1 0x20 DUP7 ADD PUSH2 0x1E44 JUMP JUMPDEST DUP1 DUP5 ADD SWAP2 POP POP SWAP3 SWAP2 POP POP JUMP JUMPDEST PUSH1 0x0 PUSH2 0x27F3 DUP3 DUP5 PUSH2 0x27B6 JUMP JUMPDEST SWAP2 POP DUP2 SWAP1 POP SWAP3 SWAP2 POP POP JUMP JUMPDEST PUSH32 0x536F66747761726520646F6573206E6F74206578697374000000000000000000 PUSH1 0x0 DUP3 ADD MSTORE POP JUMP JUMPDEST PUSH1 0x0 PUSH2 0x2834 PUSH1 0x17 DUP4 PUSH2 0x21FD JUMP JUMPDEST SWAP2 POP PUSH2 0x283F DUP3 PUSH2 0x27FE JUMP JUMPDEST PUSH1 0x20 DUP3 ADD SWAP1 POP SWAP2 SWAP1 POP JUMP JUMPDEST PUSH1 0x0 PUSH1 0x20 DUP3 ADD SWAP1 POP DUP2 DUP2 SUB PUSH1 0x0 DUP4 ADD MSTORE PUSH2 0x2863 DUP2 PUSH2 0x2827 JUMP JUMPDEST SWAP1 POP SWAP2 SWAP1 POP JUMP JUMPDEST PUSH32 0x4D616E61676572732063616E6E6F7420706572666F726D207468697320616374 PUSH1 0x0 DUP3 ADD MSTORE PUSH32 0x696F6E0000000000000000000000000000000000000000000000000000000000 PUSH1 0x20 DUP3 ADD MSTORE POP JUMP JUMPDEST PUSH1 0x0 PUSH2 0x28C6 PUSH1 0x23 DUP4 PUSH2 0x21FD JUMP JUMPDEST SWAP2 POP PUSH2 0x28D1 DUP3 PUSH2 0x286A JUMP JUMPDEST PUSH1 0x40 DUP3 ADD SWAP1 POP SWAP2 SWAP1 POP JUMP JUMPDEST PUSH1 0x0 PUSH1 0x20 DUP3 ADD SWAP1 POP DUP2 DUP2 SUB PUSH1 0x0 DUP4 ADD MSTORE PUSH2 0x28F5 DUP2 PUSH2 0x28B9 JUMP JUMPDEST SWAP1 POP SWAP2 SWAP1 POP JUMP JUMPDEST PUSH32 0x536F66747761726520697320616C726561647920736574746C65640000000000 PUSH1 0x0 DUP3 ADD MSTORE POP JUMP JUMPDEST PUSH1 0x0 PUSH2 0x2932 PUSH1 0x1B DUP4 PUSH2 0x21FD JUMP JUMPDEST SWAP2 POP PUSH2 0x293D DUP3 PUSH2 0x28FC JUMP JUMPDEST PUSH1 0x20 DUP3 ADD SWAP1 POP SWAP2 SWAP1 POP JUMP JUMPDEST PUSH1 0x0 PUSH1 0x20 DUP3 ADD SWAP1 POP DUP2 DUP2 SUB PUSH1 0x0 DUP4 ADD MSTORE PUSH2 0x2961 DUP2 PUSH2 0x2925 JUMP JUMPDEST SWAP1 POP SWAP2 SWAP1 POP JUMP JUMPDEST PUSH32 0x496E73756666696369656E74207061796D656E74000000000000000000000000 PUSH1 0x0 DUP3 ADD MSTORE POP JUMP JUMPDEST PUSH1 0x0 PUSH2 0x299E PUSH1 0x14 DUP4 PUSH2 0x21FD JUMP JUMPDEST SWAP2 POP PUSH2 0x29A9 DUP3 PUSH2 0x2968 JUMP JUMPDEST PUSH1 0x20 DUP3 ADD SWAP1 POP SWAP2 SWAP1 POP JUMP JUMPDEST PUSH1 0x0 PUSH1 0x20 DUP3 ADD SWAP1 POP DUP2 DUP2 SUB PUSH1 0x0 DUP4 ADD MSTORE PUSH2 0x29CD DUP2 PUSH2 0x2991 JUMP JUMPDEST SWAP1 POP SWAP2 SWAP1 POP JUMP JUMPDEST PUSH1 0x0 PUSH1 0x80 DUP3 ADD SWAP1 POP DUP2 DUP2 SUB PUSH1 0x0 DUP4 ADD MSTORE PUSH2 0x29EF DUP2 DUP8 DUP10 PUSH2 0x273B JUMP JUMPDEST SWAP1 POP PUSH2 0x29FE PUSH1 0x20 DUP4 ADD DUP7 PUSH2 0x1BC5 JUMP JUMPDEST PUSH2 0x2A0B PUSH1 0x40 DUP4 ADD DUP6 PUSH2 0x1C06 JUMP JUMPDEST PUSH2 0x2A18 PUSH1 0x60 DUP4 ADD DUP5 PUSH2 0x1BC5 JUMP JUMPDEST SWAP7 SWAP6 POP POP POP POP POP POP JUMP JUMPDEST PUSH1 0x0 DUP2 SWAP1 POP SWAP3 SWAP2 POP POP JUMP JUMPDEST POP JUMP JUMPDEST PUSH1 0x0 PUSH2 0x2A3D PUSH1 0x0 DUP4 PUSH2 0x2A22 JUMP JUMPDEST SWAP2 POP PUSH2 0x2A48 DUP3 PUSH2 0x2A2D JUMP JUMPDEST PUSH1 0x0 DUP3 ADD SWAP1 POP SWAP2 SWAP1 POP JUMP JUMPDEST PUSH1 0x0 PUSH2 0x2A5E DUP3 PUSH2 0x2A30 JUMP JUMPDEST SWAP2 POP DUP2 SWAP1 POP SWAP2 SWAP1 POP JUMP JUMPDEST PUSH32 0x5472616E7366657220746F2070726576696F7573206F776E6572206661696C65 PUSH1 0x0 DUP3 ADD MSTORE PUSH32 0x6400000000000000000000000000000000000000000000000000000000000000 PUSH1 0x20 DUP3 ADD MSTORE POP JUMP JUMPDEST PUSH1 0x0 PUSH2 0x2AC4 PUSH1 0x21 DUP4 PUSH2 0x21FD JUMP JUMPDEST SWAP2 POP PUSH2 0x2ACF DUP3 PUSH2 0x2A68 JUMP JUMPDEST PUSH1 0x40 DUP3 ADD SWAP1 POP SWAP2 SWAP1 POP JUMP JUMPDEST PUSH1 0x0 PUSH1 0x20 DUP3 ADD SWAP1 POP DUP2 DUP2 SUB PUSH1 0x0 DUP4 ADD MSTORE PUSH2 0x2AF3 DUP2 PUSH2 0x2AB7 JUMP JUMPDEST SWAP1 POP SWAP2 SWAP1 POP JUMP JUMPDEST PUSH32 0x4E487B7100000000000000000000000000000000000000000000000000000000 PUSH1 0x0 MSTORE PUSH1 0x32 PUSH1 0x4 MSTORE PUSH1 0x24 PUSH1 0x0 REVERT JUMPDEST PUSH1 0x0 PUSH2 0x2B34 DUP3 PUSH2 0x19A5 JUMP JUMPDEST SWAP2 POP PUSH32 0xFFFFFFFFFFFFFFFFFFFFFFFFFFFFFFFFFFFFFFFFFFFFFFFFFFFFFFFFFFFFFFFF DUP3 SUB PUSH2 0x2B66 JUMPI PUSH2 0x2B65 PUSH2 0x23F1 JUMP JUMPDEST JUMPDEST PUSH1 0x1 DUP3 ADD SWAP1 POP SWAP2 SWAP1 POP JUMP JUMPDEST PUSH1 0x0 PUSH2 0x2B7C DUP3 PUSH2 0x19A5 JUMP JUMPDEST SWAP2 POP PUSH2 0x2B87 DUP4 PUSH2 0x19A5 JUMP JUMPDEST SWAP3 POP DUP3 DUP3 SUB SWAP1 POP DUP2 DUP2 GT ISZERO PUSH2 0x2B9F JUMPI PUSH2 0x2B9E PUSH2 0x23F1 JUMP JUMPDEST JUMPDEST SWAP3 SWAP2 POP POP JUMP JUMPDEST PUSH32 0x536F667477617265206974656D206E6F7420666F756E64000000000000000000 PUSH1 0x0 DUP3 ADD MSTORE POP JUMP JUMPDEST PUSH1 0x0 PUSH2 0x2BDB PUSH1 0x17 DUP4 PUSH2 0x21FD JUMP JUMPDEST SWAP2 POP PUSH2 0x2BE6 DUP3 PUSH2 0x2BA5 JUMP JUMPDEST PUSH1 0x20 DUP3 ADD SWAP1 POP SWAP2 SWAP1 POP JUMP JUMPDEST PUSH1 0x0 PUSH1 0x20 DUP3 ADD SWAP1 POP DUP2 DUP2 SUB PUSH1 0x0 DUP4 ADD MSTORE PUSH2 0x2C0A DUP2 PUSH2 0x2BCE JUMP JUMPDEST SWAP1 POP SWAP2 SWAP1 POP JUMP JUMPDEST PUSH1 0x0 DUP2 SLOAD SWAP1 POP PUSH2 0x2C20 DUP2 PUSH2 0x248E JUMP JUMPDEST SWAP1 POP SWAP2 SWAP1 POP JUMP JUMPDEST PUSH1 0x0 DUP2 SWAP1 POP DUP2 PUSH1 0x0 MSTORE PUSH1 0x20 PUSH1 0x0 KECCAK256 SWAP1 POP SWAP2 SWAP1 POP JUMP JUMPDEST DUP2 DUP2 SUB PUSH2 0x2C4A JUMPI POP POP PUSH2 0x2D22 JUMP JUMPDEST PUSH2 0x2C53 DUP3 PUSH2 0x2C11 JUMP JUMPDEST PUSH8 0xFFFFFFFFFFFFFFFF DUP2 GT ISZERO PUSH2 0x2C6C JUMPI PUSH2 0x2C6B PUSH2 0x1A51 JUMP JUMPDEST JUMPDEST PUSH2 0x2C76 DUP3 SLOAD PUSH2 0x248E JUMP JUMPDEST PUSH2 0x2C81 DUP3 DUP3 DUP6 PUSH2 0x25DE JUMP JUMPDEST PUSH1 0x0 PUSH1 0x1F DUP4 GT PUSH1 0x1 DUP2 EQ PUSH2 0x2CB0 JUMPI PUSH1 0x0 DUP5 ISZERO PUSH2 0x2C9E JUMPI DUP3 DUP8 ADD SLOAD SWAP1 POP JUMPDEST PUSH2 0x2CA8 DUP6 DUP3 PUSH2 0x264F JUMP JUMPDEST DUP7 SSTORE POP PUSH2 0x2D1B JUMP JUMPDEST PUSH1 0x1F NOT DUP5 AND PUSH2 0x2CBE DUP8 PUSH2 0x2C27 JUMP JUMPDEST SWAP7 POP PUSH2 0x2CC9 DUP7 PUSH2 0x24BF JUMP JUMPDEST PUSH1 0x0 JUMPDEST DUP3 DUP2 LT ISZERO PUSH2 0x2CF1 JUMPI DUP5 DUP10 ADD SLOAD DUP3 SSTORE PUSH1 0x1 DUP3 ADD SWAP2 POP PUSH1 0x1 DUP6 ADD SWAP5 POP PUSH1 0x20 DUP2 ADD SWAP1 POP PUSH2 0x2CCC JUMP JUMPDEST DUP7 DUP4 LT ISZERO PUSH2 0x2D0E JUMPI DUP5 DUP10 ADD SLOAD PUSH2 0x2D0A PUSH1 0x1F DUP10 AND DUP3 PUSH2 0x2631 JUMP JUMPDEST DUP4 SSTORE POP JUMPDEST PUSH1 0x1 PUSH1 0x2 DUP9 MUL ADD DUP9 SSTORE POP POP POP JUMPDEST POP POP POP POP POP POP JUMPDEST JUMP JUMPDEST PUSH32 0x4E487B7100000000000000000000000000000000000000000000000000000000 PUSH1 0x0 MSTORE PUSH1 0x31 PUSH1 0x4 MSTORE PUSH1 0x24 PUSH1 0x0 REVERT JUMPDEST PUSH1 0x0 DUP2 SLOAD PUSH2 0x2D60 DUP2 PUSH2 0x248E JUMP JUMPDEST PUSH2 0x2D6A DUP2 DUP7 PUSH2 0x2316 JUMP JUMPDEST SWAP5 POP PUSH1 0x1 DUP3 AND PUSH1 0x0 DUP2 EQ PUSH2 0x2D85 JUMPI PUSH1 0x1 DUP2 EQ PUSH2 0x2D9A JUMPI PUSH2 0x2DCD JUMP JUMPDEST PUSH1 0xFF NOT DUP4 AND DUP7 MSTORE DUP2 ISZERO ISZERO DUP3 MUL DUP7 ADD SWAP4 POP PUSH2 0x2DCD JUMP JUMPDEST PUSH2 0x2DA3 DUP6 PUSH2 0x24BF JUMP JUMPDEST PUSH1 0x0 JUMPDEST DUP4 DUP2 LT ISZERO PUSH2 0x2DC5 JUMPI DUP2 SLOAD DUP2 DUP10 ADD MSTORE PUSH1 0x1 DUP3 ADD SWAP2 POP PUSH1 0x20 DUP2 ADD SWAP1 POP PUSH2 0x2DA6 JUMP JUMPDEST DUP4 DUP9 ADD SWAP6 POP POP POP JUMPDEST POP POP POP SWAP3 SWAP2 POP POP JUMP JUMPDEST PUSH1 0x0 PUSH2 0x2DE2 DUP3 DUP5 PUSH2 0x2D53 JUMP JUMPDEST SWAP2 POP DUP2 SWAP1 POP SWAP3 SWAP2 POP POP JUMP JUMPDEST PUSH1 0x0 PUSH1 0x20 DUP3 ADD SWAP1 POP DUP2 DUP2 SUB PUSH1 0x0 DUP4 ADD MSTORE PUSH2 0x2E08 DUP2 DUP5 DUP7 PUSH2 0x273B JUMP JUMPDEST SWAP1 POP SWAP4 SWAP3 POP POP POP JUMP INVALID LOG2 PUSH5 0x6970667358 0x22 SLT KECCAK256 MUL 0xAC 0xD2 DUP8 0xAB MSTORE PUSH28 0x72785A806ACC45A58923A6CC7C0A9779E3D3E29F0BB527AD6F64736F PUSH13 0x63430008130033000000000000 "},"methodIdentifiers":{"addSoftware(string,uint256)":"00c9e3b6","buySoftware(string)":"1809bc82","deleteSoftware(string)":"8899065e","getAllSoftwareItems()":"922dd7dc","getAllSoftwareNamesAndIds()":"87b636e4","getSoftwareDetails(string)":"d4dc42c3","getSoftwareStatus(string)":"be097b9f","getTotalSoftwareItems()":"f0776f8a","manager()":"481c6a75","sample()":"c9482a5d","settleSoftwareOwnership(string,address)":"742205d7","softwareItems(string)":"0ffecf46","softwareNameToId(string)":"38ddaeaa","softwareNames(uint256)":"b8a8d829"}}}}}